{
  "_format": "hh-sol-artifact-1",
  "contractName": "Index",
  "sourceName": "contracts/Index.sol",
  "abi": [
    {
      "inputs": [
        {
          "internalType": "address",
          "name": "admin",
          "type": "address"
        }
      ],
      "stateMutability": "nonpayable",
      "type": "constructor"
    },
    {
      "inputs": [],
      "name": "InvalidPctLevel",
      "type": "error"
    },
    {
      "inputs": [],
      "name": "InvalidTwapWindow",
      "type": "error"
    },
    {
      "inputs": [],
      "name": "NoPendingReposition",
      "type": "error"
    },
    {
      "inputs": [],
      "name": "PoolAlreadyExists",
      "type": "error"
    },
    {
      "inputs": [],
      "name": "PoolNotFound",
      "type": "error"
    },
    {
      "inputs": [],
      "name": "StaleNonce",
      "type": "error"
    },
    {
      "inputs": [],
      "name": "TwapFailed",
      "type": "error"
    },
    {
      "anonymous": false,
      "inputs": [
        {
          "indexed": true,
          "internalType": "bytes32",
          "name": "poolId",
          "type": "bytes32"
        },
        {
          "indexed": false,
          "internalType": "enum Index.Level",
          "name": "level",
          "type": "uint8"
        },
        {
          "indexed": false,
          "internalType": "uint256",
          "name": "deviationBps",
          "type": "uint256"
        },
        {
          "indexed": false,
          "internalType": "uint256",
          "name": "thresholdBps",
          "type": "uint256"
        }
      ],
      "name": "DeviationThresholdExceeded",
      "type": "event"
    },
    {
      "anonymous": false,
      "inputs": [
        {
          "indexed": false,
          "internalType": "address",
          "name": "account",
          "type": "address"
        }
      ],
      "name": "Paused",
      "type": "event"
    },
    {
      "anonymous": false,
      "inputs": [
        {
          "indexed": true,
          "internalType": "bytes32",
          "name": "poolId",
          "type": "bytes32"
        },
        {
          "indexed": false,
          "internalType": "address",
          "name": "poolAddr",
          "type": "address"
        }
      ],
      "name": "PoolRegistered",
      "type": "event"
    },
    {
      "anonymous": false,
      "inputs": [
        {
          "indexed": true,
          "internalType": "bytes32",
          "name": "poolId",
          "type": "bytes32"
        },
        {
          "indexed": false,
          "internalType": "enum Index.Level",
          "name": "level",
          "type": "uint8"
        },
        {
          "indexed": false,
          "internalType": "uint256",
          "name": "p_now_wad",
          "type": "uint256"
        },
        {
          "indexed": false,
          "internalType": "uint256",
          "name": "deviationBps",
          "type": "uint256"
        }
      ],
      "name": "PriceObserved",
      "type": "event"
    },
    {
      "anonymous": false,
      "inputs": [
        {
          "indexed": true,
          "internalType": "bytes32",
          "name": "poolId",
          "type": "bytes32"
        },
        {
          "indexed": false,
          "internalType": "enum Index.Level",
          "name": "level",
          "type": "uint8"
        },
        {
          "indexed": false,
          "internalType": "uint256",
          "name": "nonce",
          "type": "uint256"
        },
        {
          "indexed": false,
          "internalType": "address",
          "name": "cancelledBy",
          "type": "address"
        }
      ],
      "name": "RepositionCancelled",
      "type": "event"
    },
    {
      "anonymous": false,
      "inputs": [
        {
          "indexed": true,
          "internalType": "bytes32",
          "name": "poolId",
          "type": "bytes32"
        },
        {
          "indexed": false,
          "internalType": "enum Index.Level",
          "name": "level",
          "type": "uint8"
        },
        {
          "indexed": false,
          "internalType": "uint256",
          "name": "oldPRef",
          "type": "uint256"
        },
        {
          "indexed": false,
          "internalType": "uint256",
          "name": "newPRef",
          "type": "uint256"
        },
        {
          "indexed": false,
          "internalType": "uint256",
          "name": "nonce",
          "type": "uint256"
        }
      ],
      "name": "RepositionConfirmed",
      "type": "event"
    },
    {
      "anonymous": false,
      "inputs": [
        {
          "indexed": true,
          "internalType": "bytes32",
          "name": "poolId",
          "type": "bytes32"
        },
        {
          "indexed": false,
          "internalType": "enum Index.Level",
          "name": "level",
          "type": "uint8"
        },
        {
          "indexed": false,
          "internalType": "uint256",
          "name": "oldPRef",
          "type": "uint256"
        },
        {
          "indexed": false,
          "internalType": "uint256",
          "name": "pendingPRef",
          "type": "uint256"
        },
        {
          "indexed": false,
          "internalType": "uint256",
          "name": "nonce",
          "type": "uint256"
        },
        {
          "indexed": false,
          "internalType": "uint32",
          "name": "timestamp",
          "type": "uint32"
        }
      ],
      "name": "RepositionRequested",
      "type": "event"
    },
    {
      "anonymous": false,
      "inputs": [
        {
          "indexed": true,
          "internalType": "bytes32",
          "name": "poolId",
          "type": "bytes32"
        },
        {
          "indexed": false,
          "internalType": "enum Index.Level",
          "name": "level",
          "type": "uint8"
        },
        {
          "indexed": false,
          "internalType": "uint256",
          "name": "nonce",
          "type": "uint256"
        }
      ],
      "name": "RepositionTimedOut",
      "type": "event"
    },
    {
      "anonymous": false,
      "inputs": [
        {
          "indexed": true,
          "internalType": "bytes32",
          "name": "role",
          "type": "bytes32"
        },
        {
          "indexed": true,
          "internalType": "bytes32",
          "name": "previousAdminRole",
          "type": "bytes32"
        },
        {
          "indexed": true,
          "internalType": "bytes32",
          "name": "newAdminRole",
          "type": "bytes32"
        }
      ],
      "name": "RoleAdminChanged",
      "type": "event"
    },
    {
      "anonymous": false,
      "inputs": [
        {
          "indexed": true,
          "internalType": "bytes32",
          "name": "role",
          "type": "bytes32"
        },
        {
          "indexed": true,
          "internalType": "address",
          "name": "account",
          "type": "address"
        },
        {
          "indexed": true,
          "internalType": "address",
          "name": "sender",
          "type": "address"
        }
      ],
      "name": "RoleGranted",
      "type": "event"
    },
    {
      "anonymous": false,
      "inputs": [
        {
          "indexed": true,
          "internalType": "bytes32",
          "name": "role",
          "type": "bytes32"
        },
        {
          "indexed": true,
          "internalType": "address",
          "name": "account",
          "type": "address"
        },
        {
          "indexed": true,
          "internalType": "address",
          "name": "sender",
          "type": "address"
        }
      ],
      "name": "RoleRevoked",
      "type": "event"
    },
    {
      "anonymous": false,
      "inputs": [
        {
          "indexed": true,
          "internalType": "bytes32",
          "name": "poolId",
          "type": "bytes32"
        },
        {
          "indexed": false,
          "internalType": "uint256",
          "name": "priceWad",
          "type": "uint256"
        },
        {
          "indexed": false,
          "internalType": "uint32",
          "name": "ts",
          "type": "uint32"
        }
      ],
      "name": "SamplePushed",
      "type": "event"
    },
    {
      "anonymous": false,
      "inputs": [
        {
          "indexed": false,
          "internalType": "address",
          "name": "account",
          "type": "address"
        }
      ],
      "name": "Unpaused",
      "type": "event"
    },
    {
      "inputs": [],
      "name": "BPS_BASE",
      "outputs": [
        {
          "internalType": "uint256",
          "name": "",
          "type": "uint256"
        }
      ],
      "stateMutability": "view",
      "type": "function"
    },
    {
      "inputs": [],
      "name": "DEFAULT_ADMIN_ROLE",
      "outputs": [
        {
          "internalType": "bytes32",
          "name": "",
          "type": "bytes32"
        }
      ],
      "stateMutability": "view",
      "type": "function"
    },
    {
      "inputs": [],
      "name": "MAX_TWAP_WINDOW",
      "outputs": [
        {
          "internalType": "uint256",
          "name": "",
          "type": "uint256"
        }
      ],
      "stateMutability": "view",
      "type": "function"
    },
    {
      "inputs": [],
      "name": "MIN_TWAP_WINDOW",
      "outputs": [
        {
          "internalType": "uint256",
          "name": "",
          "type": "uint256"
        }
      ],
      "stateMutability": "view",
      "type": "function"
    },
    {
      "inputs": [],
      "name": "POSITION_MANAGER_ROLE",
      "outputs": [
        {
          "internalType": "bytes32",
          "name": "",
          "type": "bytes32"
        }
      ],
      "stateMutability": "view",
      "type": "function"
    },
    {
      "inputs": [],
      "name": "REPOSITION_TIMEOUT",
      "outputs": [
        {
          "internalType": "uint32",
          "name": "",
          "type": "uint32"
        }
      ],
      "stateMutability": "view",
      "type": "function"
    },
    {
      "inputs": [],
      "name": "UPDATER_ROLE",
      "outputs": [
        {
          "internalType": "bytes32",
          "name": "",
          "type": "bytes32"
        }
      ],
      "stateMutability": "view",
      "type": "function"
    },
    {
      "inputs": [],
      "name": "WAD",
      "outputs": [
        {
          "internalType": "uint256",
          "name": "",
          "type": "uint256"
        }
      ],
      "stateMutability": "view",
      "type": "function"
    },
    {
      "inputs": [
        {
          "internalType": "bytes32",
          "name": "poolId",
          "type": "bytes32"
        },
        {
          "internalType": "enum Index.Level",
          "name": "lvl",
          "type": "uint8"
        }
      ],
      "name": "cancelReposition",
      "outputs": [],
      "stateMutability": "nonpayable",
      "type": "function"
    },
    {
      "inputs": [
        {
          "internalType": "uint256",
          "name": "P_now_wad",
          "type": "uint256"
        },
        {
          "internalType": "uint256",
          "name": "P_ref_wad",
          "type": "uint256"
        }
      ],
      "name": "computeDeviationBps",
      "outputs": [
        {
          "internalType": "uint256",
          "name": "deviationBps",
          "type": "uint256"
        }
      ],
      "stateMutability": "pure",
      "type": "function"
    },
    {
      "inputs": [
        {
          "internalType": "uint256",
          "name": "P_ref_wad",
          "type": "uint256"
        },
        {
          "internalType": "uint256",
          "name": "pctInt",
          "type": "uint256"
        }
      ],
      "name": "computePriceBounds",
      "outputs": [
        {
          "internalType": "uint256",
          "name": "Pmin",
          "type": "uint256"
        },
        {
          "internalType": "uint256",
          "name": "Pmax",
          "type": "uint256"
        }
      ],
      "stateMutability": "pure",
      "type": "function"
    },
    {
      "inputs": [
        {
          "internalType": "bytes32",
          "name": "poolId",
          "type": "bytes32"
        },
        {
          "internalType": "enum Index.Level",
          "name": "lvl",
          "type": "uint8"
        },
        {
          "internalType": "uint256",
          "name": "nonce",
          "type": "uint256"
        }
      ],
      "name": "confirmReposition",
      "outputs": [],
      "stateMutability": "nonpayable",
      "type": "function"
    },
    {
      "inputs": [
        {
          "internalType": "bytes32",
          "name": "poolId",
          "type": "bytes32"
        }
      ],
      "name": "getAllLevels",
      "outputs": [
        {
          "internalType": "uint256[]",
          "name": "p_ref_wads",
          "type": "uint256[]"
        },
        {
          "internalType": "uint256[]",
          "name": "p_now_wads",
          "type": "uint256[]"
        },
        {
          "internalType": "uint256[]",
          "name": "deviationsBps",
          "type": "uint256[]"
        },
        {
          "internalType": "uint32[]",
          "name": "lastRepositionTss",
          "type": "uint32[]"
        },
        {
          "internalType": "uint256[]",
          "name": "thresholdsBps",
          "type": "uint256[]"
        }
      ],
      "stateMutability": "view",
      "type": "function"
    },
    {
      "inputs": [],
      "name": "getPctLevels",
      "outputs": [
        {
          "internalType": "uint8[]",
          "name": "",
          "type": "uint8[]"
        }
      ],
      "stateMutability": "view",
      "type": "function"
    },
    {
      "inputs": [],
      "name": "getPoolIds",
      "outputs": [
        {
          "internalType": "bytes32[]",
          "name": "",
          "type": "bytes32[]"
        }
      ],
      "stateMutability": "view",
      "type": "function"
    },
    {
      "inputs": [
        {
          "internalType": "bytes32",
          "name": "poolId",
          "type": "bytes32"
        },
        {
          "internalType": "enum Index.Level",
          "name": "lvl",
          "type": "uint8"
        }
      ],
      "name": "getRepositionNonce",
      "outputs": [
        {
          "internalType": "uint256",
          "name": "",
          "type": "uint256"
        }
      ],
      "stateMutability": "view",
      "type": "function"
    },
    {
      "inputs": [
        {
          "internalType": "bytes32",
          "name": "poolId",
          "type": "bytes32"
        },
        {
          "internalType": "enum Index.Level",
          "name": "lvl",
          "type": "uint8"
        }
      ],
      "name": "getRepositionStatus",
      "outputs": [
        {
          "internalType": "bool",
          "name": "isPending",
          "type": "bool"
        },
        {
          "internalType": "uint256",
          "name": "nonce",
          "type": "uint256"
        },
        {
          "internalType": "uint256",
          "name": "pendingPRef",
          "type": "uint256"
        },
        {
          "internalType": "uint32",
          "name": "requestTime",
          "type": "uint32"
        },
        {
          "internalType": "uint32",
          "name": "timeoutAt",
          "type": "uint32"
        }
      ],
      "stateMutability": "view",
      "type": "function"
    },
    {
      "inputs": [
        {
          "internalType": "bytes32",
          "name": "role",
          "type": "bytes32"
        }
      ],
      "name": "getRoleAdmin",
      "outputs": [
        {
          "internalType": "bytes32",
          "name": "",
          "type": "bytes32"
        }
      ],
      "stateMutability": "view",
      "type": "function"
    },
    {
      "inputs": [
        {
          "internalType": "bytes32",
          "name": "poolId",
          "type": "bytes32"
        }
      ],
      "name": "getTwap",
      "outputs": [
        {
          "internalType": "bool",
          "name": "ok",
          "type": "bool"
        },
        {
          "internalType": "uint256",
          "name": "priceWad",
          "type": "uint256"
        }
      ],
      "stateMutability": "view",
      "type": "function"
    },
    {
      "inputs": [
        {
          "internalType": "bytes32",
          "name": "role",
          "type": "bytes32"
        },
        {
          "internalType": "address",
          "name": "account",
          "type": "address"
        }
      ],
      "name": "grantRole",
      "outputs": [],
      "stateMutability": "nonpayable",
      "type": "function"
    },
    {
      "inputs": [
        {
          "internalType": "bytes32",
          "name": "role",
          "type": "bytes32"
        },
        {
          "internalType": "address",
          "name": "account",
          "type": "address"
        }
      ],
      "name": "hasRole",
      "outputs": [
        {
          "internalType": "bool",
          "name": "",
          "type": "bool"
        }
      ],
      "stateMutability": "view",
      "type": "function"
    },
    {
      "inputs": [
        {
          "internalType": "bytes32",
          "name": "poolId",
          "type": "bytes32"
        },
        {
          "internalType": "enum Index.Level",
          "name": "lvl",
          "type": "uint8"
        }
      ],
      "name": "isRepositionPending",
      "outputs": [
        {
          "internalType": "bool",
          "name": "",
          "type": "bool"
        }
      ],
      "stateMutability": "view",
      "type": "function"
    },
    {
      "inputs": [
        {
          "internalType": "bytes32",
          "name": "",
          "type": "bytes32"
        },
        {
          "internalType": "enum Index.Level",
          "name": "",
          "type": "uint8"
        }
      ],
      "name": "levelStates",
      "outputs": [
        {
          "internalType": "uint256",
          "name": "p_ref_wad",
          "type": "uint256"
        },
        {
          "internalType": "uint32",
          "name": "lastRepositionTs",
          "type": "uint32"
        },
        {
          "internalType": "uint256",
          "name": "p_now_wad",
          "type": "uint256"
        },
        {
          "internalType": "uint256",
          "name": "pending_p_ref_wad",
          "type": "uint256"
        },
        {
          "internalType": "bool",
          "name": "hasPendingReposition",
          "type": "bool"
        },
        {
          "internalType": "uint256",
          "name": "repositionNonce",
          "type": "uint256"
        },
        {
          "internalType": "uint32",
          "name": "repositionRequestTime",
          "type": "uint32"
        },
        {
          "internalType": "uint256",
          "name": "lastDeviationBps",
          "type": "uint256"
        }
      ],
      "stateMutability": "view",
      "type": "function"
    },
    {
      "inputs": [],
      "name": "pause",
      "outputs": [],
      "stateMutability": "nonpayable",
      "type": "function"
    },
    {
      "inputs": [],
      "name": "paused",
      "outputs": [
        {
          "internalType": "bool",
          "name": "",
          "type": "bool"
        }
      ],
      "stateMutability": "view",
      "type": "function"
    },
    {
      "inputs": [
        {
          "internalType": "uint256",
          "name": "",
          "type": "uint256"
        }
      ],
      "name": "pctLevels",
      "outputs": [
        {
          "internalType": "uint8",
          "name": "",
          "type": "uint8"
        }
      ],
      "stateMutability": "view",
      "type": "function"
    },
    {
      "inputs": [
        {
          "internalType": "uint256",
          "name": "",
          "type": "uint256"
        }
      ],
      "name": "poolIds",
      "outputs": [
        {
          "internalType": "bytes32",
          "name": "",
          "type": "bytes32"
        }
      ],
      "stateMutability": "view",
      "type": "function"
    },
    {
      "inputs": [
        {
          "internalType": "bytes32",
          "name": "",
          "type": "bytes32"
        }
      ],
      "name": "pools",
      "outputs": [
        {
          "internalType": "bool",
          "name": "exists",
          "type": "bool"
        },
        {
          "internalType": "address",
          "name": "poolAddress",
          "type": "address"
        },
        {
          "internalType": "uint8",
          "name": "decimals0",
          "type": "uint8"
        },
        {
          "internalType": "uint8",
          "name": "decimals1",
          "type": "uint8"
        },
        {
          "internalType": "bool",
          "name": "useUniswapTwap",
          "type": "bool"
        },
        {
          "internalType": "uint32",
          "name": "twapWindowSeconds",
          "type": "uint32"
        },
        {
          "internalType": "uint16",
          "name": "buffer_max_samples",
          "type": "uint16"
        },
        {
          "internalType": "uint16",
          "name": "buffer_count",
          "type": "uint16"
        },
        {
          "internalType": "uint16",
          "name": "buffer_next",
          "type": "uint16"
        }
      ],
      "stateMutability": "view",
      "type": "function"
    },
    {
      "inputs": [
        {
          "internalType": "bytes32",
          "name": "poolId",
          "type": "bytes32"
        }
      ],
      "name": "processPool",
      "outputs": [
        {
          "internalType": "bool[4]",
          "name": "repositionRequested",
          "type": "bool[4]"
        }
      ],
      "stateMutability": "nonpayable",
      "type": "function"
    },
    {
      "inputs": [
        {
          "internalType": "bytes32[]",
          "name": "poolIds_",
          "type": "bytes32[]"
        }
      ],
      "name": "processPools",
      "outputs": [],
      "stateMutability": "nonpayable",
      "type": "function"
    },
    {
      "inputs": [
        {
          "internalType": "bytes32",
          "name": "poolId",
          "type": "bytes32"
        },
        {
          "internalType": "uint256",
          "name": "priceWad",
          "type": "uint256"
        }
      ],
      "name": "pushSample",
      "outputs": [],
      "stateMutability": "nonpayable",
      "type": "function"
    },
    {
      "inputs": [
        {
          "internalType": "bytes32",
          "name": "poolId",
          "type": "bytes32"
        },
        {
          "internalType": "address",
          "name": "poolAddr",
          "type": "address"
        },
        {
          "internalType": "uint8",
          "name": "decimals0",
          "type": "uint8"
        },
        {
          "internalType": "uint8",
          "name": "decimals1",
          "type": "uint8"
        },
        {
          "internalType": "bool",
          "name": "useUniswapTwap",
          "type": "bool"
        },
        {
          "internalType": "uint256",
          "name": "initialPRefWad",
          "type": "uint256"
        },
        {
          "internalType": "uint32",
          "name": "twapWindowSeconds",
          "type": "uint32"
        },
        {
          "internalType": "uint16",
          "name": "bufferMax",
          "type": "uint16"
        }
      ],
      "name": "registerPool",
      "outputs": [],
      "stateMutability": "nonpayable",
      "type": "function"
    },
    {
      "inputs": [
        {
          "internalType": "bytes32",
          "name": "role",
          "type": "bytes32"
        },
        {
          "internalType": "address",
          "name": "account",
          "type": "address"
        }
      ],
      "name": "renounceRole",
      "outputs": [],
      "stateMutability": "nonpayable",
      "type": "function"
    },
    {
      "inputs": [
        {
          "internalType": "bytes32",
          "name": "role",
          "type": "bytes32"
        },
        {
          "internalType": "address",
          "name": "account",
          "type": "address"
        }
      ],
      "name": "revokeRole",
      "outputs": [],
      "stateMutability": "nonpayable",
      "type": "function"
    },
    {
      "inputs": [
        {
          "internalType": "bytes32",
          "name": "",
          "type": "bytes32"
        },
        {
          "internalType": "uint16",
          "name": "",
          "type": "uint16"
        }
      ],
      "name": "samples",
      "outputs": [
        {
          "internalType": "uint32",
          "name": "ts",
          "type": "uint32"
        },
        {
          "internalType": "uint256",
          "name": "priceWad",
          "type": "uint256"
        }
      ],
      "stateMutability": "view",
      "type": "function"
    },
    {
      "inputs": [
        {
          "internalType": "uint8[]",
          "name": "newPcts",
          "type": "uint8[]"
        }
      ],
      "name": "setPctLevels",
      "outputs": [],
      "stateMutability": "nonpayable",
      "type": "function"
    },
    {
      "inputs": [
        {
          "internalType": "bytes4",
          "name": "interfaceId",
          "type": "bytes4"
        }
      ],
      "name": "supportsInterface",
      "outputs": [
        {
          "internalType": "bool",
          "name": "",
          "type": "bool"
        }
      ],
      "stateMutability": "view",
      "type": "function"
    },
    {
      "inputs": [
        {
          "internalType": "uint256",
          "name": "pctInt",
          "type": "uint256"
        }
      ],
      "name": "thresholdFromPctInt",
      "outputs": [
        {
          "internalType": "uint256",
          "name": "thresholdBps",
          "type": "uint256"
        }
      ],
      "stateMutability": "pure",
      "type": "function"
    },
    {
      "inputs": [],
      "name": "unpause",
      "outputs": [],
      "stateMutability": "nonpayable",
      "type": "function"
    }
  ],
  "bytecode": "0x608034620002c057601f62003d3638819003918201601f1916830192916001600160401b03841183851017620002c55780839260409586528339602092839181010312620002c057516001600160a01b03811690819003620002c05760ff19916001928084541684558360025582156200029257600090818052818352858220848352835260ff93848784205416156200025d575b7f73e573f9566d61418a34d5de3ff49360f9c51fec37f7486551670290f6285dab9182845283855287842082855285528588852054161562000226575b50505060068054946801000000000000000095868110156200021257818101808455811015620001fe578284528484208160051c019060f882549160031b16908784831b921b19161790558154868110156200021257818101808455811015620001fe578284528484208160051c019060f882549160031b1690876005831b921b19161790558154868110156200021257818101808455811015620001fe578284528484208160051c019060f882549160031b169087600a831b921b1916179055815495861015620001ea578501808255851015620001d6578152208260051c019160f883549160031b16916014831b921b191617905551613a3a9081620002dc8239f35b634e487b7160e01b82526032600452602482fd5b634e487b7160e01b83526041600452602483fd5b634e487b7160e01b84526032600452602484fd5b634e487b7160e01b84526041600452602484fd5b82845283855287842082855285528688852091825416179055339160008051602062003d168339815191528480a4388080620000d1565b8280528284528683208184528452868320868382541617905533818460008051602062003d168339815191528180a462000094565b845162461bcd60e51b8152600481018390526007602482015266061646d696e3d360cc1b6044820152606490fd5b600080fd5b634e487b7160e01b600052604160045260246000fdfe6080604052600436101561001257600080fd5b60003560e01c8062e0f1e414611eee57806301ffc9a714611e985780630b553bdd14611ad35780631a65893b14611ab7578063248a9ca314611a885780632857129c14611a6a5780632e6d1a62146116095780632f2ff15d1461155657806336568abe146114c45780633750cb301461144d5780633f4ba83a146113b957806347e633801461137e57806349347bc2146113435780635c975abb146113205780635d6b7353146112f457806361771323146112be578063635b2cb41461110d57806369883b4e146110d65780636a146024146110b35780636e19aa591461107857806382e77f2b146110485780638456cb5914610fef57806389228a0214610e4d5780638a33ece814610db45780638bb47a4f14610d425780638becdf8114610d2557806391d1485414610cd85780639eaa1b0914610cbb578063a217fddf14610c9f578063b4f2bb6d14610be9578063b5217bb414610b4a578063b88a92b414610b2c578063bb7c4efa1461053e578063bed1fba9146104e8578063d547741f146104a7578063df70709c14610486578063e9d3eb501461041b578063ebd4a0d8146103635763f0bc4bb9146101c857600080fd5b3461035e5760208060031936011261035e576004358060005260039182815260ff9283604060002054161561034c576102066004600654101561334e565b61020e612885565b92610217612885565b91610220612885565b610228612885565b90610231612885565b9460005b8981169060048210156102e757908a918760005260058a5261025b826040600020611f6c565b91836004840154166000146102db5782880154610278828e6128cd565b52600283015461028882876128cd565b52600783015461029882886128cd565b5263ffffffff600180940154166102af82896128cd565b526102d36102cc856102c085611f9a565b9054908c1b1c166127a6565b918b6128cd565b520116610235565b8254610278828e6128cd565b6103118a6103488a61033a8961032c8f61031e8c918c6040519a8b9a60a08c5260a08c019061206a565b918a8303908b015261206a565b90878203604089015261206a565b90858203606087015261209e565b90838203608085015261206a565b0390f35b6040516301dbb3ff60e61b8152600490fd5b600080fd5b3461035e5761037136611f4d565b6103796127e4565b6103816120d8565b816000526005602052610398816040600020611f6c565b6004810191825460ff811615610409576006837fc82cc1f7f14afb08cee4b0d15e083de7010dde1f559d4475ba08533286f721b695600560609601549360ff19169055600060038201550163ffffffff1981541690556103fb60405180936133a7565b6020820152336040820152a2005b60405163caa703b960e01b8152600490fd5b3461035e57602036600319011261035e576004356001600160401b03811161035e5761044b903690600401611fed565b906104546127e4565b61045c6122a0565b60005b82811061046857005b8061047f610479600193868661368d565b356133d1565b500161045f565b3461035e57602061049f61049936612054565b90612765565b604051908152f35b3461035e57604036600319011261035e576104e66004356104c6611f37565b908060005260006020526104e16001604060002001546123ea565b61256f565b005b3461035e57604036600319011261035e5760243561ffff811680910361035e576004356000526004602052604060002090600052602052604080600020600163ffffffff82541691015482519182526020820152f35b3461035e57600036600319011261035e57604051806006549081835260208093019181848460066000527ff652222313e28459528d920b65115c16c04f3efc82aaedc97be59f3f377c0d3f6000905b85601f8301106109a257946106ab9554918482821061098f575b828210610979575b828210610963575b82821061094d575b828210610938575b828210610922575b82821061090c575b8282106108f6575b8282106108e0575b8282106108ca575b8282106108b4575b82821061089e575b828210610888575b828210610872575b82821061085c575b828210610846575b828210610830575b82821061081a575b828210610804575b8282106107ee575b8282106107d8575b8282106107c2575b8282106107ac575b828210610796575b828210610780575b82821061076a575b828210610754575b82821061073e575b828210610728575b828210610712575b8282106106fc575b50106106ee575b509050939293038361254e565b604051928392818401908285525180915260408401929160005b8281106106d457505050500390f35b835160ff16855286955093810193928101926001016106c5565b60f81c81520185908761069e565b6001919460ff8560f01c16815201930184610697565b6001919460ff8560e81c1681520193018461068f565b6001919460ff8560e01c16815201930184610687565b6001919460ff8560d81c1681520193018461067f565b6001919460ff8560d01c16815201930184610677565b6001919460ff8560c81c1681520193018461066f565b6001919460ff8560c01c16815201930184610667565b6001919460ff8560b81c1681520193018461065f565b6001919460ff8560b01c16815201930184610657565b6001919460ff8560a81c1681520193018461064f565b6001919460ff8560a01c16815201930184610647565b6001919460ff8560981c1681520193018461063f565b6001919460ff8560901c16815201930184610637565b6001919460ff8560881c1681520193018461062f565b6001919460ff8560801c16815201930184610627565b6001919460ff8560781c1681520193018461061f565b6001919460ff8560701c16815201930184610617565b6001919460ff8560681c1681520193018461060f565b6001919460ff8560601c16815201930184610607565b6001919460ff8560581c168152019301846105ff565b6001919460ff8560501c168152019301846105f7565b6001919460ff8560481c168152019301846105ef565b6001919460ff8560401c168152019301846105e7565b6001919460ff8560381c168152019301846105df565b6001919460ff8560301c168152019301846105d7565b6001919460ff8560281c168152019301846105cf565b6001919460ff85831c168152019301846105c7565b6001919460ff8560181c168152019301846105bf565b6001919460ff8560101c168152019301846105b7565b6001919460ff8560081c168152019301846105af565b6001919460ff85168152019301846105a7565b9350916001610400829693865460ff8082168352808260081c1686840152808260101c16604084015280828482826060828260181c168185015282828d82826080921c1681880152828260a095828260281c16878b015260c099838360301c168b820152838360381c1660e0820152838360401c16610100820152838360481c16610120820152838360501c16610140820152610160848460581c169101521c166101808d0152828260681c166101a08d0152828260701c166101c08d0152828260781c166101e08d01521c166102008a0152828260881c166102208a0152828260901c166102408a0152828260981c166102608a01521c16610280870152828260a81c166102a0870152828260b01c166102c0870152828260b81c166102e08701521c16610300840152808260c81c16610320840152808260d01c16610340840152808260d81c16610360840152808260e01c16610380840152808260e81c166103a08401528160f01c166103c083015260f81c6103e08201520194019201859391949261058d565b3461035e57600036600319011261035e57602060405162093a808152f35b3461035e57602036600319011261035e5760043560005260036020526101206001604060002080549061ffff928391015416906040519260ff82161515845260018060a01b038260081c16602085015260ff8260a81c16604085015260ff8260b01c16606085015260ff8260b81c161515608085015263ffffffff8260c01c1660a08501528160e01c1660c084015260f01c60e0830152610100820152f35b3461035e57600036600319011261035e57604051806007548083526020809301809160076000527fa66cc928b5edb82af9bd49922954155ab7b0942694bea4ce44661d9a8736c6889060005b86828210610c8b578686610c4b8288038361254e565b604051928392818401908285525180915260408401929160005b828110610c7457505050500390f35b835185528695509381019392810192600101610c65565b835485529093019260019283019201610c35565b3461035e57600036600319011261035e57602060405160008152f35b3461035e57600036600319011261035e5760206040516127108152f35b3461035e57604036600319011261035e57610cf1611f37565b600435600052600060205260406000209060018060a01b0316600052602052602060ff604060002054166040519015158152f35b3461035e57600036600319011261035e5760206040516154608152f35b3461035e5760a0610d68610d5536611f4d565b9060005260056020526040600020611f6c565b600660ff6004830154169160058101549060038101549063ffffffff93849101541690610d9482613391565b926040519515158652602086015260408501526060840152166080820152f35b3461035e57610dc236612054565b90610dce811515612722565b60648211610e3b57662386f26fc1000091828102928184041490151715610e2557670de0b6b3a7640000918201809211610e2557610e1882610e12604094846136ab565b9261371c565b9082519182526020820152f35b634e487b7160e01b600052601160045260246000fd5b604051631e55e4f360e31b8152600490fd5b3461035e57604036600319011261035e57600435602435610e6c6127e4565b610e746122a0565b816000526020906003825260406000209182549160ff83161561034c5760ff8360b81c16610fb75761ffff809360e01c1615610f80576001947f94c6f3f2919ae1039f91b405ed06d2b3ef6946a0b4902cc20d9334a477847ca3604087870193868554169563ffffffff90814216918b855191610ef083612518565b848352838301908682528960005260048552876000208c60005285528760002093511663ffffffff19845416178355519101558351928352820152a282610f42855493828560e01c16978891016127c4565b1661ffff1982541617905560f01c928310610f5957005b81546001600160f01b03166001939093011660f01b6001600160f01b031916919091179055005b60405162461bcd60e51b815260048101839052600f60248201526e189d5999995c88191a5cd8589b1959608a1b6044820152606490fd5b60405162461bcd60e51b815260048101839052601060248201526f075736520756e697377617020747761760841b6044820152606490fd5b3461035e57600036600319011261035e576110086120d8565b6110106127e4565b600160ff19815416176001557f62e78cea01bee320cd4e420270b5ea74000d11b0c9f74754ebdbfc544b05a2586020604051338152a1005b3461035e576020600561106e61105d36611f4d565b906000528284526040600020611f6c565b0154604051908152f35b3461035e57600036600319011261035e5760206040517f6af7a8f7f9ca95b722bc4d8832aeefb2b4e004a3a488a8f38b84605fa58e809b8152f35b3461035e57600036600319011261035e576020604051670de0b6b3a76400008152f35b3461035e57602036600319011261035e5760043560075481101561035e576110ff60209161201d565b90546040519160031b1c8152f35b3461035e57602036600319011261035e576004356001600160401b03811161035e5761113d903690600401611fed565b90600280541461127957600280556111536120d8565b6004820361124257600691825460008455806111f9575b5060005b81811061117c576001600255005b60ff9060648261119561119084878961368d565b61369d565b1611610e3b576111a961119082858761368d565b91855492600160401b8410156111e3576111c96001948581018955611f9a565b90928084549260031b9316831b921b19161790550161116e565b634e487b7160e01b600052604160045260246000fd5b83600052601f7ff652222313e28459528d920b65115c16c04f3efc82aaedc97be59f3f377c0d3f910160051c8101905b818110611236575061116a565b60008155600101611229565b60405162461bcd60e51b815260206004820152600f60248201526e0d8cadccee8d040dad2e6dac2e8c6d608b1b6044820152606490fd5b60405162461bcd60e51b815260206004820152601f60248201527f5265656e7472616e637947756172643a207265656e7472616e742063616c6c006044820152606490fd5b3461035e57602060ff60046112e76112d536611f4d565b90600052600585526040600020611f6c565b0154166040519015158152f35b3461035e57602036600319011261035e576040611312600435612828565b825191151582526020820152f35b3461035e57600036600319011261035e57602060ff600154166040519015158152f35b3461035e57602036600319011261035e5760043560065481101561035e5760ff61136e602092611f9a565b9190546040519260031b1c168152f35b3461035e57600036600319011261035e5760206040517f73e573f9566d61418a34d5de3ff49360f9c51fec37f7486551670290f6285dab8152f35b3461035e57600036600319011261035e576113d26120d8565b60015460ff8116156114115760ff19166001557f5db9ee0a495bf2e6ff9c91a7834c1ba4fdd244a5e8aa4e537bd38aeae4b073aa6020604051338152a1005b60405162461bcd60e51b815260206004820152601460248201527314185d5cd8589b194e881b9bdd081c185d5cd95960621b6044820152606490fd5b3461035e57610100611461610d5536611f4d565b80549063ffffffff9081600182015416916002820154600383015460ff600485015416916007600586015494600687015416950154956040519788526020880152604087015260608601521515608085015260a084015260c083015260e0820152f35b3461035e57604036600319011261035e576114dd611f37565b336001600160a01b038216036114f9576104e69060043561256f565b60405162461bcd60e51b815260206004820152602f60248201527f416363657373436f6e74726f6c3a2063616e206f6e6c792072656e6f756e636560448201526e103937b632b9903337b91039b2b63360891b6064820152608490fd5b3461035e57604036600319011261035e57600435611572611f37565b81600052600060205261158c6001604060002001546123ea565b81600052600060205260406000209060018060a01b0316908160005260205260ff60406000205416156115bb57005b8160005260006020526040600020816000526020526040600020600160ff1982541617905533917f2f8788117e7eff1d82e926ec794901d17c78024a50270940304540a733656f0d600080a4005b3461035e5761010036600319011261035e57611623611f37565b60443560ff8116810361035e576064359060ff8216820361035e5760843591821515830361035e5760c4359063ffffffff8216820361035e5760e4359161ffff8316830361035e576116736120d8565b600435600052600360205260ff60406000205416611a58576001600160a01b03861615611a2a57603c63ffffffff8216108015611a18575b611a065760a435156119d1578415611995575b60405194856101208101106001600160401b03610120880111176111e35760ff63ffffffff938161ffff976101208a0160405260018a5260018060a01b038b1660208b0152166040890152166060870152151560808601521660a08401521660c0820152600060e08201526000610100820152600435600052600360205261ffff6101006001604060002061176285511515829060ff801983541691151516179055565b6020850151815460ff60a81b604088015160a81b1660ff60b01b606089015160b01b1660ff60b81b60808a0151151560b81b169163ffffffff60c01b60a08b015160c01b16938960e01b60c08c015160e01b1695898960a81b039060081b169060ff8b60f01b011617171717171781556117fa8460e087015116829081549061ffff60f01b9060f01b169060018060f01b0316179055565b019201511661ffff19825416179055600754600160401b8110156111e357806001611828920160075561201d565b81549060031b90600435821b91600019901b191617905560005b600460ff8216101561195857604051806101008101106001600160401b03610100830111176111e35760ff91816101006001930160405260a435815263ffffffff4216602082015260a43560408201526000606082015260006080820152600060a0820152600060c0820152600060e0820152600435600052600760e0600592836020526118d68786166040600020611f6c565b93815185558685019063ffffffff6020840151169163ffffffff199283825416179055604083015160028701556060830151600387015561192c60808401511515600488019060ff801983541691151516179055565b60a083015190860155600685019063ffffffff60c0840151169082541617905501519101550116611842565b506040516001600160a01b039091168152600435907f946e67eaf397721464cb56b8b0ac3a2314899a244844b0bcd6d229daecde172190602090a2005b61ffff83166116be5760405162461bcd60e51b815260206004820152600b60248201526a06275666665724d61783d360ac1b6044820152606490fd5b60405162461bcd60e51b815260206004820152600d60248201526c0696e697469616c505265663e3609c1b6044820152606490fd5b604051635df6da8560e11b8152600490fd5b5062093a8063ffffffff8216116116ab565b60405162461bcd60e51b81526020600482015260066024820152650706f6f6c3d360d41b6044820152606490fd5b604051630188c99160e11b8152600490fd5b3461035e57602036600319011261035e57602061049f6004356127a6565b3461035e57602036600319011261035e5760043560005260006020526020600160406000200154604051908152f35b3461035e57600036600319011261035e576020604051603c8152f35b3461035e57606036600319011261035e576004356024803590600482101561035e5760443590611b016127e4565b3360009081527f5da9ec947643319abb2738166eb28781b42a7ea372900ebd0e6d046b4735e88060209081526040909120547f6af7a8f7f9ca95b722bc4d8832aeefb2b4e004a3a488a8f38b84605fa58e809b9060ff1615611cb757508460005260058152611b74846040600020611f6c565b90600482019182549360ff8516156104095785600583015403611ca5576006820190815463ffffffff9182611baa818416613391565b164211611c345750837fdc498b8812c46a28a285f83f668608f26e390e55a0cd726d66198112ec7c6b219997959360009360079360809b999754976003850199878b549b8c88556001880163ffffffff19964216878254161790558c60028901555560ff191690551690550155611c2460405180966133a7565b84015260408301526060820152a2005b8560146064928d7f1c42e02e8b6c16742640620eb829e204fe42be63c35cb2b444e7d96eace0c70460408f8f611c6c835180936133a7565b87820152a26040519262461bcd60e51b845260048401528201527314995c1bdcda5d1a5bdb881d1a5b5959081bdd5d60621b6044820152fd5b604051630d8d01cf60e41b8152600490fd5b90611cc133612614565b604051611ccd81612533565b60428152828101936060368637815115611e8357603085538151600190811015611e6e57607860218401536041905b808211611e00575050611dbe5760449394611d8b6048611db093604051988991611d7c8984019876020b1b1b2b9b9a1b7b73a3937b61d1030b1b1b7bab73a1604d1b8a52611d53815180928d6037890191016124f5565b8401917001034b99036b4b9b9b4b733903937b6329607d1b6037840152518093868401906124f5565b0103602881018952018761254e565b60405195869462461bcd60e51b865260048601525192838092860152858501906124f5565b601f01601f19168101030190fd5b606485846040519162461bcd60e51b83528160048401528201527f537472696e67733a20686578206c656e67746820696e73756666696369656e746044820152fd5b9091600f81166010811015611e59576f181899199a1a9b1b9c1cb0b131b232b360811b901a611e2f8486612603565b5360041c918015611e44576000190190611cfc565b87634e487b7160e01b60005260116004526000fd5b88634e487b7160e01b60005260326004526000fd5b86634e487b7160e01b60005260326004526000fd5b85634e487b7160e01b60005260326004526000fd5b3461035e57602036600319011261035e5760043563ffffffff60e01b811680910361035e57602090637965db0b60e01b8114908115611edd575b506040519015158152f35b6301ffc9a760e01b14905082611ed2565b3461035e5760208060031936011261035e57611f0b6004356133d1565b604051916000835b60048210611f2057608085f35b828060019286511515815201940191019092611f13565b602435906001600160a01b038216820361035e57565b604090600319011261035e5760043590602435600481101561035e5790565b906004811015611f8457600052602052604060002090565b634e487b7160e01b600052602160045260246000fd5b90600654821015611fd7576006600052601f8260051c7ff652222313e28459528d920b65115c16c04f3efc82aaedc97be59f3f377c0d3f01921690565b634e487b7160e01b600052603260045260246000fd5b9181601f8401121561035e578235916001600160401b03831161035e576020808501948460051b01011161035e57565b600754811015611fd75760076000527fa66cc928b5edb82af9bd49922954155ab7b0942694bea4ce44661d9a8736c6880190600090565b604090600319011261035e576004359060243590565b90815180825260208080930193019160005b82811061208a575050505090565b83518552938101939281019260010161207c565b90815180825260208080930193019160005b8281106120be575050505090565b835163ffffffff16855293810193928101926001016120b0565b3360009081527fad3228b676f7d3cd4284a5443f17f1962b36e491b30a40b2405849e597ba5fb560209081526040808320549092919060ff161561211b57505050565b61212433612614565b83518361213082612533565b6042825283820194606036873782511561228c576030865382519060019182101561228c5790607860218501536041915b81831161221e575050506121dc57846121b86048611db0936044979851988991611d7c8984019876020b1b1b2b9b9a1b7b73a3937b61d1030b1b1b7bab73a1604d1b8a52611d53815180928d6037890191016124f5565b5194859362461bcd60e51b85526004850152518092816024860152858501906124f5565b60648386519062461bcd60e51b825280600483015260248201527f537472696e67733a20686578206c656e67746820696e73756666696369656e746044820152fd5b909192600f81166010811015612278576f181899199a1a9b1b9c1cb0b131b232b360811b901a61224e8587612603565b5360041c92801561226457600019019190612161565b634e487b7160e01b82526011600452602482fd5b634e487b7160e01b83526032600452602483fd5b634e487b7160e01b81526032600452602490fd5b3360009081527f738678fe42df6a4211eb7628ac9b056229141839eb4f4ef4cc249f1d36e8c9216020908152604080832054909291907f73e573f9566d61418a34d5de3ff49360f9c51fec37f7486551670290f6285dab9060ff16156123065750505050565b61230f33612614565b9084519061231c82612533565b6042825283820194606036873782511561228c576030865382519060019182101561228c5790607860218501536041915b8183116123a4575050506121dc57846121b86048611db0936044979851988991611d7c8984019876020b1b1b2b9b9a1b7b73a3937b61d1030b1b1b7bab73a1604d1b8a52611d53815180928d6037890191016124f5565b909192600f81166010811015612278576f181899199a1a9b1b9c1cb0b131b232b360811b901a6123d48587612603565b5360041c9280156122645760001901919061234d565b60008181526020818152604092838320338452825260ff8484205416156124115750505050565b61241a33612614565b9084519061242782612533565b6042825283820194606036873782511561228c576030865382519060019182101561228c5790607860218501536041915b8183116124af575050506121dc57846121b86048611db0936044979851988991611d7c8984019876020b1b1b2b9b9a1b7b73a3937b61d1030b1b1b7bab73a1604d1b8a52611d53815180928d6037890191016124f5565b909192600f81166010811015612278576f181899199a1a9b1b9c1cb0b131b232b360811b901a6124df8587612603565b5360041c92801561226457600019019190612458565b60005b8381106125085750506000910152565b81810151838201526020016124f8565b604081019081106001600160401b038211176111e357604052565b608081019081106001600160401b038211176111e357604052565b90601f801991011681019081106001600160401b038211176111e357604052565b9060009180835282602052604083209160018060a01b03169182845260205260ff60408420541661259f57505050565b80835282602052604083208284526020526040832060ff1981541690557ff6391f5c32d9c69d2a47ea670b442974b53935d1edc7fd64eb21e047a839171b339380a4565b81810292918115918404141715610e2557565b91908201809211610e2557565b908151811015611fd7570160200190565b60405190606082018281106001600160401b038211176111e357604052602a8252602082016040368237825115611fd757603090538151600190811015611fd757607860218401536029905b8082116126b45750506126705790565b606460405162461bcd60e51b815260206004820152602060248201527f537472696e67733a20686578206c656e67746820696e73756666696369656e746044820152fd5b9091600f8116601081101561270d576f181899199a1a9b1b9c1cb0b131b232b360811b901a6126e38486612603565b5360041c9180156126f8576000190190612660565b60246000634e487b7160e01b81526011600452fd5b60246000634e487b7160e01b81526032600452fd5b1561272957565b60405162461bcd60e51b81526020600482015260076024820152660505f7265663e360cc1b6044820152606490fd5b91908203918211610e2557565b90612771811515612722565b811561279f576127929181808211156127955761278d91612758565b613888565b90565b9061278d91612758565b5050600090565b60648111610e3b57606481029080820460641490151715610e255790565b81156127ce570690565b634e487b7160e01b600052601260045260246000fd5b60ff600154166127f057565b60405162461bcd60e51b815260206004820152601060248201526f14185d5cd8589b194e881c185d5cd95960821b6044820152606490fd5b8060005260036020526040600020805460ff8116156128635760b81c60ff161561285a5761285691506128e1565b9091565b61285691613075565b505050600090600090565b6001600160401b0381116111e35760051b60200190565b6040519060a082018281106001600160401b038211176111e357604052600482526080366020840137565b805115611fd75760200190565b805160011015611fd75760400190565b8051821015611fd75760209160051b010190565b549063ffffffff8260c01c1690811561306c57604051926001600160401b0360608501818111868210176111e35760405260028552604036602087013783612928866128b0565b5260009384612936876128bd565b526040519563883bdbfd60e01b875260046020818901528761295d6024938483019061209e565b0393878960018060a01b039681888a60081c165afa988991899a612f51575b505061298e5750949550859450505050565b6002885110612f45576129ad6129a3896128bd565b5160060b986128b0565b5160060b97878982039912818a128116918a1390151617612f0e57600160ff1b976000199390808a1482861416612ba85705627fffff90818113600014612f2657505b60020b9787891215612f1f578814612f0e57878703975b620d89e88911612ee7576001891615612ed5576001600160881b036ffffcb933bd6fad37aa2d162d1a5940015b169860028116612ea9575b828116612e7d575b60088116612e51575b60108116612e25575b60208116612df9575b60408116612dcd575b608090818116612da2575b6101008116612d77575b6102008116612d4c575b6104008116612d21575b6108008116612cf6575b6110008116612ccb575b6120008116612ca0575b6140008116612c75575b6180008116612c4a575b620100008116612c1f575b620200008116612bf5575b620400008116612bba575b6208000016612b7f575b508712612b55575b505050612b248495612b3894955063ffffffff811615600014612b4c5760ff875b169060201c6125f6565b1660ff808360b01c169260a81c169061327b565b918215612b46575060019190565b91508190565b60ff6001612b1a565b8715612b6e5750509490940493612b24612b3838612af9565b634e487b7160e01b87526012905285fd5b6b048a170391f7dc42444e8fa299919991828102928184041490151715612ba8571c9787612af1565b634e487b7160e01b8952601183528389fd5b996d2216e584f5fa1ea926041bedfe9890818102918183041490151715612be357811c99612ae7565b634e487b7160e01b8a5260118452848afd5b996e5d6af8dedb81196699c329225ee60490818102918183041490151715612be357811c99612adc565b996f09aa508b5b7a84e1c677de54f3e99bc990818102918183041490151715612be357811c99612ad1565b996f31be135f97d08fd981231505542fcfa690818102918183041490151715612be357811c99612ac6565b996f70d869a156d2a1b890bb3df62baf32f790818102918183041490151715612be357811c99612abc565b996fa9f746462d870fdf8a65dc1f90e061e590818102918183041490151715612be357811c99612ab2565b996fd097f3bdfd2022b8845ad8f792aa582590818102918183041490151715612be357811c99612aa8565b996fe7159475a2c29b7443b29c7fa6e889d990818102918183041490151715612be357811c99612a9e565b996ff3392b0822b70005940c7a398e4b70f390818102918183041490151715612be357811c99612a94565b996ff987a7253ac413176f2b074cf7815e5490818102918183041490151715612be357811c99612a8a565b996ffcbe86c7900a88aedcffc83b479aa3a490818102918183041490151715612be357811c99612a80565b996ffe5dee046a99a2a811c461f1969c305390818102918183041490151715612be357811c99612a76565b986fff2ea16466c96a3843ec78b326b5286190818102918183041490151715612ba85760801c98612a6b565b986fff973b41fa98c081472e6896dfb254c090818102918183041490151715612ba85760801c98612a62565b986fffcb9843d60f6159c9db58835c92664490818102918183041490151715612ba85760801c98612a59565b986fffe5caca7e10e4e61c3624eaa0941cd090818102918183041490151715612ba85760801c98612a50565b986ffff2e50f5f656932ef12357cf3c7fdcc90818102918183041490151715612ba85760801c98612a47565b986ffff97272373d413259a46990580e213a90818102918183041490151715612ba85760801c98612a3f565b6001600160881b03600160801b612a34565b50600160649260206040519362461bcd60e51b8552840152820152601560fa1b6044820152fd5b634e487b7160e01b87526011905285fd5b5087612a07565b627fffff19915081811215612f3b57506129f0565b905060020b6129f0565b50949550859450505050565b909199503d808a843e612f64818461254e565b8201906040838303126130465782518181116130425783019282601f85011215613042578351612f938161286e565b94612fa1604051968761254e565b81865260208087019260051b8201019085821161306857602001915b81831061304a57505050602081015191821161304257019080601f8301121561304657815191602080612fef8561286e565b612ffc604051918261254e565b858152019360051b82010191821161304257602001915b8183106130255750505097388061297c565b8251888116810361303e57815260209283019201613013565b8b80fd5b8a80fd5b8980fd5b82518060060b810361306457815260209283019201612fbd565b8e80fd5b8d80fd5b60009250829150565b90918254918260f01c90811561325c5761ffff9382856001818460e01c16980154168682821015600014613242575003858111610e2557915b63ffffffff809260c01c166000818442161160001461323a575082421603828111610e2557925b60009485928691879388955b8b8716838110156131d457908c8e8193828616906130fe916125f6565b90613108916127c4565b16908560005260209b8c9260048452604090816000209060005284528060002090519d8e61313581612518565b8d8354169283825260010154918291015281156131c3578c83161561319c5750908b91828216811161317b575b505060019291508c51169b0151970116995b99956130e1565b9161318f916001959b9a93031692836138e1565b0196019690893880613162565b9d50925050508989168110156131bb57506001895b9a97011699613174565b6001906131b1565b50509b509760019150011699613174565b5098969750505050975094955050818116801515908161322e575b5061320e575b5050508015613205576001920490565b50600091508190565b906132239181969394964216031692836138e1565b0192013880806131f5565b905082421611386131ef565b9050926130d5565b91613250613255928a6125f6565b612758565b16916130ae565b506000935083925050565b9060ff8091169116039060ff8211610e2557565b9091906001600160a01b031680156133465761329690613931565b908115613346576132a98260ff936136ab565b928183168382161061333457906132bf91613267565b166000905b602481116132ef57604d8111610e2557600a0a90156132e657612792916139a2565b612792916138e1565b60405162461bcd60e51b815260206004820152601760248201527f646563696d616c73206469666620746f6f206c617267650000000000000000006044820152606490fd5b61333d91613267565b166001906132c4565b505050600090565b1561335557565b60405162461bcd60e51b81526020600482015260146024820152730e0c6e898caeccad8e640c4c2c840d8cadccee8d60631b6044820152606490fd5b9061546063ffffffff80931601918211610e2557565b906004821015611f845752565b6040919493926133c88260608101976133a7565b60208201520152565b6040516080918282018281106001600160401b038211176111e357604052823683376133fb6127e4565b6134036122a0565b80600052600360205260ff604060002054161561034c576134296004600654101561334e565b61343281612828565b9390158015613685575b6136735760005b600460ff8216101561366b57600160ff9184600052600560205261346d8382166040600020611f6c565b60048101548481168061364e575b6135fb575b5061348c815489612765565b90886002820155816007820155867fc7ad5b4f6c58171c93b69891c8894685efb48dfa671db29831042f2568c0c31e838b6134cf6040519283928b8a16846133b4565b0390a26134ec856134df85611f9a565b90549060031b1c166127a6565b9087828411613501575b505050500116613443565b7ffd438adffb4f78b93604c7c47c12953e7f64b7e2df509d2cfba46990ee0b69e36004938895613539604051928392898b16846133b4565b0390a20154161561354e575b388080876134f6565b8460005260056020526135678382166040600020611f6c565b857ff80c4bdd8a559867cc71be1aa92020507de033d0a7cbc1f0b5cc0d601537970a60a0835460058501948795868154018091558d600383015560048201878b19825416179055600663ffffffff421692018263ffffffff19825416179055604051926135d6848c8b166133a7565b60208401528d6040840152606083015289820152a2611fe08260051b16870152613545565b841916600482015560006003820155857f1c42e02e8b6c16742640620eb829e204fe42be63c35cb2b444e7d96eace0c70460406005840154815190613642828a89166133a7565b6020820152a238613480565b5063ffffffff61366381600685015416613391565b16421161347b565b505050905090565b604051633ed149fd60e01b8152600490fd5b50831561343c565b9190811015611fd75760051b0190565b3560ff8116810361035e5790565b909190600019838209928082029283808610950394808603951461370a5750670de0b6b3a7640000918483111561035e5709118082038060ee1b04600160ee1b1491141715610e2557634e487b7160e01b600052601160045260246000fd5b93505050670de0b6b3a7640000900490565b9190670de0b6b3a7640000906000198285099382810292838087109603958087039614613879578583111561035e5782910990801960018101809111610e255781168091049161377b600096600184808a0304019086841190036125e3565b92806003029660038804820361385157600280981861379a81846125e3565b89039089821161386557906137ae916125e3565b6137b881846125e3565b89039089821161386557906137cc916125e3565b6137d681846125e3565b89039089821161386557906137ea916125e3565b6137f481846125e3565b8903908982116138655790613808916125e3565b61381281846125e3565b8903908982116138655761383091613829916125e3565b80936125e3565b880397881161385157506127929596613848916125e3565b930304176125e3565b634e487b7160e01b81526011600452602490fd5b634e487b7160e01b83526011600452602483fd5b5050809293501561035e570490565b9190612710906000198285099382810292838087109603958087039614613879578583111561035e5782910990801960018101809111610e255781168091049161377b600096600184808a0304019086841190036125e3565b90600019818309918181029182808510940393808503941461392a57836001111561035e5760019109600181830393838311141715610e2557146001828004141715610e255790565b5050905090565b670de0b6b3a7640000600019818309918181029182808510940393808503941461399857600160601b918483111561035e57099080821192838103938460a01b948504600160a01b1491141715610e25570360601c1780800460011481151715610e255790565b5050905060601c90565b90919060001960018209928180851094039380850394146139f7578381111561035e57806001830990801960018101809111610e255781168091049161377b600096600184808a0304019086841190036125e3565b809293501561035e57049056fea264697066735822122075e87e81d117a282de91365a450fb6c3aa8a1e5c5a96f8a0f5c84bed93e9486c64736f6c634300081400332f8788117e7eff1d82e926ec794901d17c78024a50270940304540a733656f0d",
  "linkReferences": {},
  "deployedLinkReferences": {}
}