{
  "_format": "hh-sol-artifact-1",
  "contractName": "PositionManager",
  "sourceName": "contracts/PositionManager.sol",
  "abi": [
    {
      "inputs": [
        {
          "internalType": "address",
          "name": "unifiedIndex_",
          "type": "address"
        },
        {
          "internalType": "address",
          "name": "nfpm_",
          "type": "address"
        }
      ],
      "stateMutability": "nonpayable",
      "type": "constructor"
    },
    {
      "inputs": [],
      "name": "Inactive",
      "type": "error"
    },
    {
      "inputs": [],
      "name": "NoStuckNFT",
      "type": "error"
    },
    {
      "inputs": [],
      "name": "NotOwner",
      "type": "error"
    },
    {
      "inputs": [
        {
          "internalType": "uint256",
          "name": "x",
          "type": "uint256"
        }
      ],
      "name": "PRBMathUD60x18__SqrtOverflow",
      "type": "error"
    },
    {
      "inputs": [],
      "name": "UnsupportedFeeTier",
      "type": "error"
    },
    {
      "inputs": [],
      "name": "ZeroAddr",
      "type": "error"
    },
    {
      "anonymous": false,
      "inputs": [
        {
          "indexed": true,
          "internalType": "uint256",
          "name": "id",
          "type": "uint256"
        }
      ],
      "name": "ClosePosition",
      "type": "event"
    },
    {
      "anonymous": false,
      "inputs": [
        {
          "indexed": true,
          "internalType": "uint256",
          "name": "id",
          "type": "uint256"
        },
        {
          "indexed": false,
          "internalType": "uint256",
          "name": "amt0",
          "type": "uint256"
        },
        {
          "indexed": false,
          "internalType": "uint256",
          "name": "amt1",
          "type": "uint256"
        }
      ],
      "name": "CollectFees",
      "type": "event"
    },
    {
      "anonymous": false,
      "inputs": [
        {
          "indexed": true,
          "internalType": "uint256",
          "name": "id",
          "type": "uint256"
        },
        {
          "indexed": false,
          "internalType": "uint128",
          "name": "added",
          "type": "uint128"
        },
        {
          "indexed": false,
          "internalType": "uint256",
          "name": "used0",
          "type": "uint256"
        },
        {
          "indexed": false,
          "internalType": "uint256",
          "name": "used1",
          "type": "uint256"
        }
      ],
      "name": "IncreaseLiquidityEv",
      "type": "event"
    },
    {
      "anonymous": false,
      "inputs": [
        {
          "indexed": true,
          "internalType": "uint256",
          "name": "posId",
          "type": "uint256"
        },
        {
          "indexed": false,
          "internalType": "uint256",
          "name": "tokenId",
          "type": "uint256"
        },
        {
          "indexed": false,
          "internalType": "string",
          "name": "method",
          "type": "string"
        }
      ],
      "name": "NFTCleanupPartialSuccess",
      "type": "event"
    },
    {
      "anonymous": false,
      "inputs": [
        {
          "indexed": true,
          "internalType": "uint256",
          "name": "posId",
          "type": "uint256"
        },
        {
          "indexed": false,
          "internalType": "uint256",
          "name": "tokenId",
          "type": "uint256"
        },
        {
          "indexed": false,
          "internalType": "address",
          "name": "owner",
          "type": "address"
        }
      ],
      "name": "NFTRecovered",
      "type": "event"
    },
    {
      "anonymous": false,
      "inputs": [
        {
          "indexed": true,
          "internalType": "uint256",
          "name": "posId",
          "type": "uint256"
        },
        {
          "indexed": false,
          "internalType": "uint256",
          "name": "tokenId",
          "type": "uint256"
        },
        {
          "indexed": false,
          "internalType": "address",
          "name": "owner",
          "type": "address"
        }
      ],
      "name": "NFTStuckRecorded",
      "type": "event"
    },
    {
      "anonymous": false,
      "inputs": [
        {
          "indexed": true,
          "internalType": "uint256",
          "name": "posId",
          "type": "uint256"
        },
        {
          "indexed": false,
          "internalType": "uint256",
          "name": "oldTokenId",
          "type": "uint256"
        }
      ],
      "name": "OldTokenStuck",
      "type": "event"
    },
    {
      "anonymous": false,
      "inputs": [
        {
          "indexed": true,
          "internalType": "uint256",
          "name": "id",
          "type": "uint256"
        },
        {
          "indexed": true,
          "internalType": "address",
          "name": "owner",
          "type": "address"
        },
        {
          "indexed": false,
          "internalType": "uint256",
          "name": "tokenId",
          "type": "uint256"
        },
        {
          "indexed": false,
          "internalType": "int24",
          "name": "lower",
          "type": "int24"
        },
        {
          "indexed": false,
          "internalType": "int24",
          "name": "upper",
          "type": "int24"
        },
        {
          "indexed": false,
          "internalType": "uint128",
          "name": "liquidity",
          "type": "uint128"
        }
      ],
      "name": "OpenPosition",
      "type": "event"
    },
    {
      "anonymous": false,
      "inputs": [
        {
          "indexed": false,
          "internalType": "address",
          "name": "account",
          "type": "address"
        }
      ],
      "name": "Paused",
      "type": "event"
    },
    {
      "anonymous": false,
      "inputs": [
        {
          "indexed": true,
          "internalType": "address",
          "name": "who",
          "type": "address"
        },
        {
          "indexed": true,
          "internalType": "address",
          "name": "token",
          "type": "address"
        },
        {
          "indexed": false,
          "internalType": "uint256",
          "name": "amount",
          "type": "uint256"
        }
      ],
      "name": "RefundQueued",
      "type": "event"
    },
    {
      "anonymous": false,
      "inputs": [
        {
          "indexed": true,
          "internalType": "uint256",
          "name": "id",
          "type": "uint256"
        },
        {
          "indexed": false,
          "internalType": "uint256",
          "name": "oldTokenId",
          "type": "uint256"
        },
        {
          "indexed": false,
          "internalType": "uint256",
          "name": "newTokenId",
          "type": "uint256"
        },
        {
          "indexed": false,
          "internalType": "uint128",
          "name": "oldLiq",
          "type": "uint128"
        },
        {
          "indexed": false,
          "internalType": "uint128",
          "name": "newLiq",
          "type": "uint128"
        },
        {
          "indexed": false,
          "internalType": "uint256",
          "name": "nonce",
          "type": "uint256"
        }
      ],
      "name": "RepositionPerformed",
      "type": "event"
    },
    {
      "anonymous": false,
      "inputs": [
        {
          "indexed": true,
          "internalType": "bytes32",
          "name": "role",
          "type": "bytes32"
        },
        {
          "indexed": true,
          "internalType": "bytes32",
          "name": "previousAdminRole",
          "type": "bytes32"
        },
        {
          "indexed": true,
          "internalType": "bytes32",
          "name": "newAdminRole",
          "type": "bytes32"
        }
      ],
      "name": "RoleAdminChanged",
      "type": "event"
    },
    {
      "anonymous": false,
      "inputs": [
        {
          "indexed": true,
          "internalType": "bytes32",
          "name": "role",
          "type": "bytes32"
        },
        {
          "indexed": true,
          "internalType": "address",
          "name": "account",
          "type": "address"
        },
        {
          "indexed": true,
          "internalType": "address",
          "name": "sender",
          "type": "address"
        }
      ],
      "name": "RoleGranted",
      "type": "event"
    },
    {
      "anonymous": false,
      "inputs": [
        {
          "indexed": true,
          "internalType": "bytes32",
          "name": "role",
          "type": "bytes32"
        },
        {
          "indexed": true,
          "internalType": "address",
          "name": "account",
          "type": "address"
        },
        {
          "indexed": true,
          "internalType": "address",
          "name": "sender",
          "type": "address"
        }
      ],
      "name": "RoleRevoked",
      "type": "event"
    },
    {
      "anonymous": false,
      "inputs": [
        {
          "indexed": true,
          "internalType": "uint256",
          "name": "posId",
          "type": "uint256"
        },
        {
          "indexed": false,
          "internalType": "string",
          "name": "reason",
          "type": "string"
        }
      ],
      "name": "SyncFailedCollect",
      "type": "event"
    },
    {
      "anonymous": false,
      "inputs": [
        {
          "indexed": true,
          "internalType": "uint256",
          "name": "posId",
          "type": "uint256"
        },
        {
          "indexed": false,
          "internalType": "string",
          "name": "reason",
          "type": "string"
        }
      ],
      "name": "SyncFailedDecrease",
      "type": "event"
    },
    {
      "anonymous": false,
      "inputs": [
        {
          "indexed": true,
          "internalType": "uint256",
          "name": "posId",
          "type": "uint256"
        },
        {
          "indexed": false,
          "internalType": "string",
          "name": "reason",
          "type": "string"
        }
      ],
      "name": "SyncFailedMint",
      "type": "event"
    },
    {
      "anonymous": false,
      "inputs": [
        {
          "indexed": true,
          "internalType": "uint256",
          "name": "id",
          "type": "uint256"
        },
        {
          "indexed": false,
          "internalType": "int24",
          "name": "oldLower",
          "type": "int24"
        },
        {
          "indexed": false,
          "internalType": "int24",
          "name": "oldUpper",
          "type": "int24"
        },
        {
          "indexed": false,
          "internalType": "int24",
          "name": "newLower",
          "type": "int24"
        },
        {
          "indexed": false,
          "internalType": "int24",
          "name": "newUpper",
          "type": "int24"
        }
      ],
      "name": "SyncPositionCommitted",
      "type": "event"
    },
    {
      "anonymous": false,
      "inputs": [
        {
          "indexed": false,
          "internalType": "address",
          "name": "account",
          "type": "address"
        }
      ],
      "name": "Unpaused",
      "type": "event"
    },
    {
      "anonymous": false,
      "inputs": [
        {
          "indexed": true,
          "internalType": "address",
          "name": "who",
          "type": "address"
        },
        {
          "indexed": true,
          "internalType": "address",
          "name": "token",
          "type": "address"
        },
        {
          "indexed": false,
          "internalType": "uint256",
          "name": "amount",
          "type": "uint256"
        }
      ],
      "name": "Withdrawn",
      "type": "event"
    },
    {
      "inputs": [],
      "name": "DEFAULT_ADMIN_ROLE",
      "outputs": [
        {
          "internalType": "bytes32",
          "name": "",
          "type": "bytes32"
        }
      ],
      "stateMutability": "view",
      "type": "function"
    },
    {
      "inputs": [],
      "name": "MANAGER_ROLE",
      "outputs": [
        {
          "internalType": "bytes32",
          "name": "",
          "type": "bytes32"
        }
      ],
      "stateMutability": "view",
      "type": "function"
    },
    {
      "inputs": [],
      "name": "Q96",
      "outputs": [
        {
          "internalType": "uint256",
          "name": "",
          "type": "uint256"
        }
      ],
      "stateMutability": "view",
      "type": "function"
    },
    {
      "inputs": [],
      "name": "RESCUE_ROLE",
      "outputs": [
        {
          "internalType": "bytes32",
          "name": "",
          "type": "bytes32"
        }
      ],
      "stateMutability": "view",
      "type": "function"
    },
    {
      "inputs": [],
      "name": "UPDATER_ROLE",
      "outputs": [
        {
          "internalType": "bytes32",
          "name": "",
          "type": "bytes32"
        }
      ],
      "stateMutability": "view",
      "type": "function"
    },
    {
      "inputs": [],
      "name": "WAD",
      "outputs": [
        {
          "internalType": "uint256",
          "name": "",
          "type": "uint256"
        }
      ],
      "stateMutability": "view",
      "type": "function"
    },
    {
      "inputs": [
        {
          "internalType": "uint256[]",
          "name": "posIds",
          "type": "uint256[]"
        }
      ],
      "name": "batchRecoverStuckNFTs",
      "outputs": [],
      "stateMutability": "nonpayable",
      "type": "function"
    },
    {
      "inputs": [
        {
          "internalType": "uint256",
          "name": "posId",
          "type": "uint256"
        }
      ],
      "name": "closePosition",
      "outputs": [],
      "stateMutability": "nonpayable",
      "type": "function"
    },
    {
      "inputs": [
        {
          "internalType": "uint256",
          "name": "posId",
          "type": "uint256"
        },
        {
          "internalType": "uint128",
          "name": "amount0Max",
          "type": "uint128"
        },
        {
          "internalType": "uint128",
          "name": "amount1Max",
          "type": "uint128"
        }
      ],
      "name": "collectFees",
      "outputs": [],
      "stateMutability": "nonpayable",
      "type": "function"
    },
    {
      "inputs": [
        {
          "internalType": "address",
          "name": "token",
          "type": "address"
        },
        {
          "internalType": "address",
          "name": "to",
          "type": "address"
        },
        {
          "internalType": "uint256",
          "name": "amount",
          "type": "uint256"
        }
      ],
      "name": "emergencyRescueERC20",
      "outputs": [],
      "stateMutability": "nonpayable",
      "type": "function"
    },
    {
      "inputs": [
        {
          "internalType": "address",
          "name": "token",
          "type": "address"
        },
        {
          "internalType": "uint256",
          "name": "tokenId",
          "type": "uint256"
        },
        {
          "internalType": "address",
          "name": "to",
          "type": "address"
        }
      ],
      "name": "emergencyRescueERC721",
      "outputs": [],
      "stateMutability": "nonpayable",
      "type": "function"
    },
    {
      "inputs": [
        {
          "internalType": "bytes32",
          "name": "role",
          "type": "bytes32"
        }
      ],
      "name": "getRoleAdmin",
      "outputs": [
        {
          "internalType": "bytes32",
          "name": "",
          "type": "bytes32"
        }
      ],
      "stateMutability": "view",
      "type": "function"
    },
    {
      "inputs": [
        {
          "internalType": "uint256",
          "name": "posId",
          "type": "uint256"
        }
      ],
      "name": "getStuckNFTInfo",
      "outputs": [
        {
          "internalType": "bool",
          "name": "hasStuckNFT",
          "type": "bool"
        },
        {
          "internalType": "uint256",
          "name": "tokenId",
          "type": "uint256"
        },
        {
          "internalType": "address",
          "name": "owner",
          "type": "address"
        }
      ],
      "stateMutability": "view",
      "type": "function"
    },
    {
      "inputs": [
        {
          "internalType": "bytes32",
          "name": "role",
          "type": "bytes32"
        },
        {
          "internalType": "address",
          "name": "account",
          "type": "address"
        }
      ],
      "name": "grantRole",
      "outputs": [],
      "stateMutability": "nonpayable",
      "type": "function"
    },
    {
      "inputs": [
        {
          "internalType": "bytes32",
          "name": "role",
          "type": "bytes32"
        },
        {
          "internalType": "address",
          "name": "account",
          "type": "address"
        }
      ],
      "name": "hasRole",
      "outputs": [
        {
          "internalType": "bool",
          "name": "",
          "type": "bool"
        }
      ],
      "stateMutability": "view",
      "type": "function"
    },
    {
      "inputs": [
        {
          "internalType": "uint256",
          "name": "posId",
          "type": "uint256"
        },
        {
          "internalType": "uint256",
          "name": "amount0Desired",
          "type": "uint256"
        },
        {
          "internalType": "uint256",
          "name": "amount1Desired",
          "type": "uint256"
        },
        {
          "internalType": "uint256",
          "name": "amount0Min",
          "type": "uint256"
        },
        {
          "internalType": "uint256",
          "name": "amount1Min",
          "type": "uint256"
        },
        {
          "internalType": "uint256",
          "name": "deadline",
          "type": "uint256"
        }
      ],
      "name": "increaseLiquidity",
      "outputs": [],
      "stateMutability": "nonpayable",
      "type": "function"
    },
    {
      "inputs": [],
      "name": "index",
      "outputs": [
        {
          "internalType": "contract IIndex",
          "name": "",
          "type": "address"
        }
      ],
      "stateMutability": "view",
      "type": "function"
    },
    {
      "inputs": [],
      "name": "nextPositionId",
      "outputs": [
        {
          "internalType": "uint256",
          "name": "",
          "type": "uint256"
        }
      ],
      "stateMutability": "view",
      "type": "function"
    },
    {
      "inputs": [],
      "name": "nfpm",
      "outputs": [
        {
          "internalType": "contract INonfungiblePositionManager",
          "name": "",
          "type": "address"
        }
      ],
      "stateMutability": "view",
      "type": "function"
    },
    {
      "inputs": [
        {
          "internalType": "address",
          "name": "",
          "type": "address"
        },
        {
          "internalType": "address",
          "name": "",
          "type": "address"
        },
        {
          "internalType": "uint256",
          "name": "",
          "type": "uint256"
        },
        {
          "internalType": "bytes",
          "name": "",
          "type": "bytes"
        }
      ],
      "name": "onERC721Received",
      "outputs": [
        {
          "internalType": "bytes4",
          "name": "",
          "type": "bytes4"
        }
      ],
      "stateMutability": "pure",
      "type": "function"
    },
    {
      "inputs": [
        {
          "internalType": "bytes32",
          "name": "poolId",
          "type": "bytes32"
        },
        {
          "internalType": "enum IIndex.Level",
          "name": "level",
          "type": "uint8"
        },
        {
          "internalType": "address",
          "name": "token0",
          "type": "address"
        },
        {
          "internalType": "address",
          "name": "token1",
          "type": "address"
        },
        {
          "internalType": "uint24",
          "name": "fee",
          "type": "uint24"
        },
        {
          "internalType": "uint256",
          "name": "amount0Desired",
          "type": "uint256"
        },
        {
          "internalType": "uint256",
          "name": "amount1Desired",
          "type": "uint256"
        },
        {
          "internalType": "uint256",
          "name": "amount0Min",
          "type": "uint256"
        },
        {
          "internalType": "uint256",
          "name": "amount1Min",
          "type": "uint256"
        },
        {
          "internalType": "uint256",
          "name": "deadline",
          "type": "uint256"
        }
      ],
      "name": "openPosition",
      "outputs": [
        {
          "internalType": "uint256",
          "name": "id",
          "type": "uint256"
        }
      ],
      "stateMutability": "nonpayable",
      "type": "function"
    },
    {
      "inputs": [],
      "name": "pause",
      "outputs": [],
      "stateMutability": "nonpayable",
      "type": "function"
    },
    {
      "inputs": [],
      "name": "paused",
      "outputs": [
        {
          "internalType": "bool",
          "name": "",
          "type": "bool"
        }
      ],
      "stateMutability": "view",
      "type": "function"
    },
    {
      "inputs": [
        {
          "internalType": "uint256",
          "name": "",
          "type": "uint256"
        }
      ],
      "name": "positions",
      "outputs": [
        {
          "internalType": "address",
          "name": "owner",
          "type": "address"
        },
        {
          "internalType": "bytes32",
          "name": "poolId",
          "type": "bytes32"
        },
        {
          "internalType": "enum IIndex.Level",
          "name": "level",
          "type": "uint8"
        },
        {
          "internalType": "uint256",
          "name": "tokenId",
          "type": "uint256"
        },
        {
          "internalType": "int24",
          "name": "tickLower",
          "type": "int24"
        },
        {
          "internalType": "int24",
          "name": "tickUpper",
          "type": "int24"
        },
        {
          "internalType": "uint128",
          "name": "liquidity",
          "type": "uint128"
        },
        {
          "internalType": "uint24",
          "name": "feeTier",
          "type": "uint24"
        },
        {
          "internalType": "address",
          "name": "token0",
          "type": "address"
        },
        {
          "internalType": "address",
          "name": "token1",
          "type": "address"
        },
        {
          "internalType": "bool",
          "name": "active",
          "type": "bool"
        }
      ],
      "stateMutability": "view",
      "type": "function"
    },
    {
      "inputs": [
        {
          "internalType": "uint256",
          "name": "posId",
          "type": "uint256"
        }
      ],
      "name": "recoverStuckNFT",
      "outputs": [],
      "stateMutability": "nonpayable",
      "type": "function"
    },
    {
      "inputs": [
        {
          "internalType": "bytes32",
          "name": "role",
          "type": "bytes32"
        },
        {
          "internalType": "address",
          "name": "account",
          "type": "address"
        }
      ],
      "name": "renounceRole",
      "outputs": [],
      "stateMutability": "nonpayable",
      "type": "function"
    },
    {
      "inputs": [
        {
          "internalType": "bytes32",
          "name": "role",
          "type": "bytes32"
        },
        {
          "internalType": "address",
          "name": "account",
          "type": "address"
        }
      ],
      "name": "revokeRole",
      "outputs": [],
      "stateMutability": "nonpayable",
      "type": "function"
    },
    {
      "inputs": [
        {
          "internalType": "uint256",
          "name": "",
          "type": "uint256"
        }
      ],
      "name": "stuckNFTOwners",
      "outputs": [
        {
          "internalType": "address",
          "name": "",
          "type": "address"
        }
      ],
      "stateMutability": "view",
      "type": "function"
    },
    {
      "inputs": [
        {
          "internalType": "uint256",
          "name": "",
          "type": "uint256"
        }
      ],
      "name": "stuckNFTs",
      "outputs": [
        {
          "internalType": "uint256",
          "name": "",
          "type": "uint256"
        }
      ],
      "stateMutability": "view",
      "type": "function"
    },
    {
      "inputs": [
        {
          "internalType": "bytes4",
          "name": "interfaceId",
          "type": "bytes4"
        }
      ],
      "name": "supportsInterface",
      "outputs": [
        {
          "internalType": "bool",
          "name": "",
          "type": "bool"
        }
      ],
      "stateMutability": "view",
      "type": "function"
    },
    {
      "inputs": [
        {
          "internalType": "uint256",
          "name": "posId",
          "type": "uint256"
        }
      ],
      "name": "syncPosition",
      "outputs": [],
      "stateMutability": "nonpayable",
      "type": "function"
    },
    {
      "inputs": [],
      "name": "unpause",
      "outputs": [],
      "stateMutability": "nonpayable",
      "type": "function"
    },
    {
      "inputs": [
        {
          "internalType": "address",
          "name": "token",
          "type": "address"
        }
      ],
      "name": "withdraw",
      "outputs": [],
      "stateMutability": "nonpayable",
      "type": "function"
    },
    {
      "inputs": [
        {
          "internalType": "address",
          "name": "",
          "type": "address"
        },
        {
          "internalType": "address",
          "name": "",
          "type": "address"
        }
      ],
      "name": "withdrawable",
      "outputs": [
        {
          "internalType": "uint256",
          "name": "",
          "type": "uint256"
        }
      ],
      "stateMutability": "view",
      "type": "function"
    }
  ],
  "bytecode": "0x60c03462000395576200636b90601f38839003908101601f19168201906001600160401b038211838310176200039a578083916040958694855283398101031262000395576200004f81620003b0565b6200005e6020809301620003b0565b6001805460ff19908116825560028290556004829055909290916001600160a01b03918216801580156200038a575b62000379576080521660a052600091828052828452848320338452845260ff85842054161562000344575b7f241ecf16d79d0f8dbfb92cbc07fe17840425976cf0667f022fe9877caa831b08808452838552858420338552855260ff8685205416156200030d575b507f73e573f9566d61418a34d5de3ff49360f9c51fec37f7486551670290f6285dab808452838552858420338552855260ff868520541615620002d6575b507fc4c453d647953c0fd35db5a34ee76e60fb4abc3a8fb891a25936b70b38f2925393848452838152858420338552815260ff8685205416156200029d575b8551615f859081620003c68239608051818181610ff801528181611074015281816110f901528181611cea015281816138c701528181613d8901528181613e1501528181613e9701528181613eef015281816143e40152614492015260a0518181816103e50152818161066e015281816108f501528181610e23015281816112ff015281816116e60152818161172301528181611797015281816117ef01528181611db0015281816122ab015281816124e901528181612529015281816125ce0152818161262c01528181613f78015281816140850152818161428901528181614339015281816143790152818161458d015281816145cd015281816146310152818161466e015281816146ae015281816146eb0152818161493801528181614e5701526150a20152f35b84845283815285842090338552528483209182541617905533916000805160206200634b833981519152339280a4388080808062000172565b80845283855285842033855285528584208284825416179055339033906000805160206200634b8339815191528680a43862000133565b80845283855285842033855285528584208284825416179055339033906000805160206200634b8339815191528680a438620000f5565b828052828452848320338452845284832081838254161790553333846000805160206200634b8339815191528180a4620000b8565b865163ae9954c360e01b8152600490fd5b50828216156200008d565b600080fd5b634e487b7160e01b600052604160045260246000fd5b51906001600160a01b0382168203620003955756fe608080604052600436101561001357600080fd5b600090813560e01c90816301ffc9a7146126e45750806312d7b2c4146120da57806313d4d91214612025578063150b7a0214611fb75780631afe305214611d45578063248a9ca314611d195780632986c0e514611cd45780632f2ff15d14611c2457806336568abe14611b915780633a710fd014611b5e5780633f4ba83a14611ac95780634079246514611aa957806347e6338014611a6e5780634ff82e3f14610f6a57806351cff8d914610e985780635c975abb14610e755780636a14602414610e525780637303e91314610e0d578063812ccd1014610bf85780638456cb5914610b9e578063899346c714610b805780638ca1410514610b5b57806391d1485414610b1057806399fbab8814610a4c5780639d0a6c69146109f0578063a126d6011461051c578063a217fddf14610500578063b14d3ec514610317578063b1a9f809146102dc578063c0314d271461028d578063d547741f1461024d578063e00ee15314610223578063ec87621c146101e85763fe77601d1461019757600080fd5b346101e55760203660031901126101e557606090600435815260066020526040812054908181526007602052604060018060a01b039120541660405191801515835260208301526040820152f35b80fd5b50346101e557806003193601126101e55760206040517f241ecf16d79d0f8dbfb92cbc07fe17840425976cf0667f022fe9877caa831b088152f35b50346101e55760203660031901126101e55760406020916004358152600683522054604051908152f35b50346101e55760403660031901126101e55761028a60043561026d612765565b90808452836020526102856001604086200154612aab565b612c9f565b80f35b50346101e55760403660031901126101e5576102a7612739565b60406102b1612765565b9260018060a01b03809316815260056020522091166000526020526020604060002054604051908152f35b50346101e557806003193601126101e55760206040517fc4c453d647953c0fd35db5a34ee76e60fb4abc3a8fb891a25936b70b38f292538152f35b50346101e55760603660031901126101e5576004356024356001600160801b03908181168091036104fb576044359182168092036104fb57610357612e52565b61035f6135ad565b828452600360205260408420546001600160a01b039190821633036104e957838552600360205260408520600681019360ff855460a01c16156104d7576103df926040916003840154918351926103b584612c37565b835230602084015283830152606082015281518094819263fc6f786560e01b835260048301613cba565b038189877f0000000000000000000000000000000000000000000000000000000000000000165af19081156104cc577f1ff33645c64958e21c3c6591bfca2098f1fcf60d3318cdc61c25cc065bf5f9389460409488948994610496575b509083918561047c575b82610463575b5050505082519182526020820152a2600160025580f35b8061047394541691541690613c16565b3881818061044c565b61049186828654168360058801541690613c16565b610446565b9094506104ba919350853d87116104c5575b6104b28183612c52565b8101906137f2565b93909392903861043c565b503d6104a8565b6040513d88823e3d90fd5b604051632e8acb0d60e01b8152600490fd5b6040516330cd747160e01b8152600490fd5b600080fd5b50346101e557806003193601126101e557602090604051908152f35b50346101e55760203660031901126101e557610536612e52565b61053e6135ad565b6004358152600360205260408120546001600160a01b031633036104e9576004358152600360205260408120600681015460ff8160a01c16156104d7576024600383015461058d811515613c83565b60058401546040516370a0823160e01b81523060048201529260209184919082906001600160a01b03165afa9182156108925785926109b9575b506040516370a0823160e01b815230600482015292602090849060249082906001600160a01b03165afa928315610892578593610985575b506001600160801b03600485015460301c168061089d575b50506106696040600385015481519061062f82612c37565b81523060208201526001600160801b03828201526001600160801b03606082015281518093819263fc6f786560e01b835260048301613cba565b0381887f00000000000000000000000000000000000000000000000000000000000000006001600160a01b03165af1801561089257610874575b5060058301546040516370a0823160e01b81523060048201526001600160a01b0390911691602082602481865afa9081156104cc57869161083f575b60068601546040516370a0823160e01b81523060048201529350602090849060249082906001600160a01b03165afa928315610834578793610800575b50808211156107f75761072e91613565565b925b808211156107ee5761074191613565565b915b806107d2575b5050806107ae575b506003810154815461077091600435916001600160a01b031690614e4d565b50600601805460ff60a01b191690556004357f76ea9b4ec8740d36765c806fad62b75c4418d245d5264e20b01f07ca9ef48b1c8280a2600160025580f35b815460068301546107cc92916001600160a01b039182169116613c16565b38610751565b83546107e792906001600160a01b0316613c16565b3880610749565b50508391610743565b50508492610730565b9092506020813d60201161082c575b8161081c60209383612c52565b810103126104fb5751913861071c565b3d915061080f565b6040513d89823e3d90fd5b90506020823d60201161086c575b8161085a60209383612c52565b810103126104fb5760249151906106df565b3d915061084d565b61088c9060403d6040116104c5576104b28183612c52565b506106a3565b6040513d87823e3d90fd5b61012c42014211610971576108f0916040918251916108bb83612c1c565b82526020820152868282015286606082015261012c42016080820152815180938192630624e65f60e11b835260048301613d06565b0381887f00000000000000000000000000000000000000000000000000000000000000006001600160a01b03165af1801561089257610953575b5060048301805475ffffffffffffffffffffffffffffffff000000000000191690553880610617565b61096b9060403d6040116104c5576104b28183612c52565b5061092a565b634e487b7160e01b86526011600452602486fd5b9092506020813d6020116109b1575b816109a160209383612c52565b810103126104fb575191386105ff565b3d9150610994565b9291506020833d6020116109e8575b816109d560209383612c52565b810103126104fb579151909160206105c7565b3d91506109c8565b50346101e55760603660031901126101e557610a44610a0d612739565b610a15612765565b610a1d612e52565b610a2561279e565b6001600160a01b03610a3a82821615156152ca565b6044359216612ea6565b600160025580f35b50346101e55760203660031901126101e557604061016091600435815260036020522060ff60018060a01b0391828154169260018201549162ffffff846002830154166003830154610abf600485015492600687600588015416960154976040519a8b5260208b015260408a019061277b565b60608801528060020b60808801528060181c60020b60a08801526001600160801b038160301c1660c088015260b01c1660e0860152610100850152811661012084015260a01c161515610140820152f35b50346101e55760403660031901126101e5576040610b2c612765565b91600435815280602052209060018060a01b0316600052602052602060ff604060002054166040519015158152f35b50346101e55760203660031901126101e557610b75612e52565b610a44600435615060565b50346101e557806003193601126101e5576020600454604051908152f35b50346101e557806003193601126101e557610bb7612987565b610bbf6135ad565b600160ff19815416176001557f62e78cea01bee320cd4e420270b5ea74000d11b0c9f74754ebdbfc544b05a2586020604051338152a180f35b50346101e557602080600319360112610e0957610c13612e52565b610c1b6135ad565b7f73e573f9566d61418a34d5de3ff49360f9c51fec37f7486551670290f6285dab8060005260008252604060002033600052825260ff6040600020541615610c695782610a44600435613d43565b610c7233612d44565b60405190610c7f82612c37565b60428252838201926060368537825115610df357603084538251600190811015610df357607860218501536041905b808211610d99575050610d5657610d5293610d0293610d3a93610d2b604894604051978576020b1b1b2b9b9a1b7b73a3937b61d1030b1b1b7bab73a1604d1b8a978801528251928391603789019101612bb4565b8401917001034b99036b4b9b9b4b733903937b6329607d1b603784015251809386840190612bb4565b01036028810184520182612c52565b60405162461bcd60e51b815291829160048301612c73565b0390fd5b6064846040519062461bcd60e51b825280600483015260248201527f537472696e67733a20686578206c656e67746820696e73756666696369656e746044820152fd5b9091600f81166010811015610df3576f181899199a1a9b1b9c1cb0b131b232b360811b901a610dc88487612d33565b5360041c918015610ddd576000190190610cae565b634e487b7160e01b600052601160045260246000fd5b634e487b7160e01b600052603260045260246000fd5b5080fd5b50346101e557806003193601126101e5576040517f00000000000000000000000000000000000000000000000000000000000000006001600160a01b03168152602090f35b50346101e557806003193601126101e5576020604051670de0b6b3a76400008152f35b50346101e557806003193601126101e557602060ff600154166040519015158152f35b50346101e557602080600319360112610e0957610eb3612739565b90610ebc612e52565b3383526005815260408084206001600160a01b039093166000818152938352922054908115610f3b577fd1c19fbcd4551a5edfb66d43d2e337c04837afda3482b42bdf569a8fccdae5fb90338552600581526040852084600052815284604060002055610f2a833386612ea6565b6040519283523392a3600160025580f35b6064906040519062461bcd60e51b8252600482015260086024820152676e6f2066756e647360c01b6044820152fd5b50346101e5576101403660031901126101e557600460243510156101e557610f9061274f565b6064356001600160a01b03811690036104fb5762ffffff6084351660843503610e0957610fbb612e52565b610fc36135ad565b610fd2426101243510156130dc565b610fe4600360ff602435161115613113565b604051635dbe277d60e11b815282816004817f00000000000000000000000000000000000000000000000000000000000000006001600160a01b03165afa908115611a105760ff91611053918591611a4c575b506110488151846024351610613113565b8260243516906131f5565b5160405163f0bc4bb960e01b815260048035908201529116929081816024817f00000000000000000000000000000000000000000000000000000000000000006001600160a01b03165afa908115611a4157906110cf918391611a1b575b506110c3815160ff6024351610613113565b60ff60243516906131f5565b516110db81151561335f565b604051632d485eed60e21b81526004803590820152610120816024817f00000000000000000000000000000000000000000000000000000000000000006001600160a01b03165afa918215611a1057839495611143949286946119cf575b5060843591613876565b6111516084949294356137a2565b8160020b8560020b121561199557627fffff19600286810b9084900b03908112627fffff909113176119815761118f818660020b8460020b03613437565b60020b611931576111a08186613437565b60020b6118ed576111b19082613437565b60020b6118a9576040516370a0823160e01b8152306004820152936020856024816001600160a01b0387165afa94851561189e57849561186a575b506040516370a0823160e01b8152306004820152926020846024816064356001600160a01b03165afa8015610892578590611836575b6112fa945061123e60a43530336001600160a01b0386166135f1565b61125760c43530336064356001600160a01b03166135f1565b60a4356117e2575b60c43561178a575b608060405161127581612c00565b6001600160a01b03848116825260643516602082015260843562ffffff16604080830191909152600286810b606084015287900b8383015260a43560a083015260c43560c083015260e43560e083015261010435610100830152306101208301526101243561014083015251634418b22b60e11b81529687918291906004830161349c565b0381897f00000000000000000000000000000000000000000000000000000000000000006001600160a01b03165af19687156104cc5786958798611751575b5061134e6001600160801b0389161515613529565b60a435611716575b60c4356116d9575b6040516370a0823160e01b81523060048201526020816024816001600160a01b0388165afa9081156116ce57889161169c575b506040516370a0823160e01b8152306004820152916020836024816064356001600160a01b03165afa92831561169157899361165d575b5080821115611654576113da91613565565b915b8082111561164b576113ed91613565565b905b8061163a575b5080611627575b506004549461140a86613572565b6004556040519161141a83612c00565b3383526004803560208086019182526024356040808801918252606088018b9052600289810b60808a01528a900b60a08901526001600160801b038d1660c089015260843562ffffff1660e08901526001600160a01b039586166101008901526064358616610120890152600161014089018190528c885260039093528620875181546001600160a01b0319169616959095178555915190840155519192908210156116135750916006826001600160801b039694600260209b9795019060ff801983541691161790556060830151600382015560048101608084015162ffffff198254169062ffffff1617815561153260a085015160020b829081549060181b65ffffff000000169065ffffff0000001916179055565b6115428860c08601511682613581565b60e084015181549062ffffff60b01b9060b01b169062ffffff60b01b19161790556005810160018060a01b03610100850151166bffffffffffffffffffffffff60a01b825416179055019060018060a01b036101208201511682549161014060ff60a01b910151151560a01b16916affffffffffffffffffffff60a81b161717905560405194855260020b8685015260020b6040840152166060820152817fde929e3d601cae09901d12d8a1fd5dd846e9e9ecbf864ad0385defda3f7472f260803393a36001600255604051908152f35b634e487b7160e01b81526021600452602490fd5b6116349060643533613c16565b386113fc565b611645908333613c16565b386113f5565b505085906113ef565b505086916113dc565b9092506020813d602011611689575b8161167960209383612c52565b810103126104fb575191386113c8565b3d915061166c565b6040513d8b823e3d90fd5b90506020813d6020116116c6575b816116b760209383612c52565b810103126104fb575138611391565b3d91506116aa565b6040513d8a823e3d90fd5b6117116001600160a01b037f000000000000000000000000000000000000000000000000000000000000000081169060643516613633565b61135e565b61174c6001600160a01b037f00000000000000000000000000000000000000000000000000000000000000008116908516613633565b611356565b90975061177791955060803d608011611783575b61176f8183612c52565b810190613473565b50509490949638611339565b503d611765565b6117dd6001600160a01b037f00000000000000000000000000000000000000000000000000000000000000008116906117c890829060643516613633565b60c435906064356001600160a01b031661366e565b611267565b6118316001600160a01b037f000000000000000000000000000000000000000000000000000000000000000081169061181e9082908616613633565b60a435906001600160a01b03851661366e565b61125f565b506020843d602011611862575b8161185060209383612c52565b810103126104fb576112fa9351611222565b3d9150611843565b9094506020813d602011611896575b8161188660209383612c52565b810103126104fb575193386111ec565b3d9150611879565b6040513d86823e3d90fd5b606460405162461bcd60e51b815260206004820152602060248201527f7469636b5570706572206e6f7420616c69676e656420746f2073706163696e676044820152fd5b606460405162461bcd60e51b815260206004820152602060248201527f7469636b4c6f776572206e6f7420616c69676e656420746f2073706163696e676044820152fd5b60405162461bcd60e51b815260206004820152602260248201527f7469636b2072616e6765206e6f74206d756c7469706c65206f662073706163696044820152616e6760f01b6064820152608490fd5b634e487b7160e01b84526011600452602484fd5b60405162461bcd60e51b8152602060048201526012602482015271696e76616c6964207469636b2072616e676560701b6044820152606490fd5b9093506119f79192506101203d61012011611a09575b6119ef8183612c52565b8101906133ba565b50505050509392509050919238611139565b503d6119e5565b6040513d85823e3d90fd5b611a3791503d8085833e611a2f8183612c52565b810190613278565b50505050386110b1565b6040513d84823e3d90fd5b611a6891503d8087833e611a608183612c52565b810190613174565b38611037565b50346101e557806003193601126101e55760206040517f73e573f9566d61418a34d5de3ff49360f9c51fec37f7486551670290f6285dab8152f35b50346101e557806003193601126101e557604051600160601b8152602090f35b50346101e557806003193601126101e557611ae2612987565b60015460ff811615611b225760ff19166001557f5db9ee0a495bf2e6ff9c91a7834c1ba4fdd244a5e8aa4e537bd38aeae4b073aa6020604051338152a180f35b60405162461bcd60e51b815260206004820152601460248201527314185d5cd8589b194e881b9bdd081c185d5cd95960621b6044820152606490fd5b50346101e55760203660031901126101e557602090600435815260078252604060018060a01b0391205416604051908152f35b50346101e55760403660031901126101e557611bab612765565b336001600160a01b03821603611bc75761028a90600435612c9f565b60405162461bcd60e51b815260206004820152602f60248201527f416363657373436f6e74726f6c3a2063616e206f6e6c792072656e6f756e636560448201526e103937b632b9903337b91039b2b63360891b6064820152608490fd5b50346101e55760403660031901126101e557600435611c41612765565b81835282602052611c586001604085200154612aab565b81835282602052604083209060018060a01b0316908160005260205260ff6040600020541615611c86578280f35b8183528260205260408320816000526020526040600020600160ff1982541617905533917f2f8788117e7eff1d82e926ec794901d17c78024a50270940304540a733656f0d8480a438808280f35b50346101e557806003193601126101e5576040517f00000000000000000000000000000000000000000000000000000000000000006001600160a01b03168152602090f35b50346101e55760203660031901126101e557600160406020926004358152808452200154604051908152f35b50346101e557602080600319360112610e09576004356001600160401b0391828211611fb35736602383011215611fb3578160040135928311611fb35760246005368286831b86010111611faf57611d9e949394612e52565b611da661279e565b6001600160a01b037f0000000000000000000000000000000000000000000000000000000000000000811695909187805b878110611de75750600160025580f35b8581841b85010135808352600680895260408420548015611fa257808552600790818b5288604087205416918d3b15611f2c578b878f8180918f60405180958193630852cd8d60e31b83528a60048401525af19182611f85575b5050611f3057508d3b15611f2c57868c918f98604051809a632142170760e11b8252818381611e928a8c306004850160409194939294606082019560018060a01b0380921683521660208201520152565b03925af180611f13575b611eb29950611eb9575b50505050505050613572565b8890611dd7565b868252949091526040808220829055828252938c5283902080546001600160a01b031916905582519081526001600160a01b03919091166020820152600080516020615f308339815191529190a2388080808a8e82611ea6565b925097611f208291612bd7565b6101e557878d92611e9c565b8680fd5b858852939093526040808720879055818752928b529482902080546001600160a01b031916905581519485526001600160a01b03166020850152611eb293600080516020615f308339815191529190a2613572565b611f9191929350612bd7565b611f9e578c908838611e41565b8780fd5b505050611eb29150613572565b8580fd5b8380fd5b50346101e55760803660031901126101e557611fd1612739565b50611fda612765565b506064356001600160401b03808211612021573660238301121561202157816004013590811161202157369101602401116101e557604051630a85bd0160e11b8152602090f35b8280fd5b50346101e55760603660031901126101e55780612040612739565b61204861274f565b90612051612e52565b61205961279e565b6001600160a01b039061206f83831615156152ca565b1690813b156120d657604051632142170760e11b81523060048201526001600160a01b039190911660248083019190915235604482015291908290606490829084905af18015611a41576120c7575b50600160025580f35b6120d090612bd7565b386120be565b5050fd5b50346101e55760c03660031901126101e5576120f4612e52565b6120fc6135ad565b6004358152600360205260408120546001600160a01b031633036104e9576121284260a43510156130dc565b600435815260036020526040812060068101549060ff8260a01c16156104d7576003810161215881541515613c83565b60058201546040516370a0823160e01b815230600482015291906001600160a01b0316602083602481845afa9283156104cc5786936126ad575b506040516370a0823160e01b815230600482015294602090869060249082906001600160a01b03165afa9485156104cc578695612677575b506121dc9060243590309033906135f1565b6121f6604435303360018060a01b036006880154166135f1565b602435612619575b6044356125bb575b5490604051918260c08101106001600160401b0360c0850111176125a75760c083016040528252602435602083015260443560408301526064356060830152608435608083015260a43560a083015260a06040519263219f5d1760e01b84528051600485015260208101516024850152604081015160448501526060810151606485015260808101516084850152015160a483015260608260c4818860018060a01b037f0000000000000000000000000000000000000000000000000000000000000000165af192831561089257859486938795612556575b50602435612516575b6044356124d6575b60058201546040516370a0823160e01b8152306004820152936001600160a01b0390911690602085602481855afa801561169157899061249f575b60068501546040516370a0823160e01b81523060048201529650602090879060249082906001600160a01b03165afa918215612494578a9261245b575b60049650808211156124525761237d91613565565b925b808211156124495761239091613565565b915b8061242d575b505080612409575b50016001600160801b03908180825460301c16951680950191821161097157906123c991613581565b604051928352602083015260408201527fbb6e1b5572f186f93c1e68f4f79e5b0b357bbabd25d926245e8c4b0a03423825606060043592a2600160025580f35b8154600683015461242792916001600160a01b039182169116613c16565b386123a0565b835461244292906001600160a01b0316613c16565b3880612398565b50508791612392565b5050889261237f565b91506020863d60201161248c575b8161247660209383612c52565b81010312612488576004955191612368565b8980fd5b3d9150612469565b6040513d8c823e3d90fd5b506020853d6020116124ce575b816124b960209383612c52565b810103126124ca576024945161232b565b8880fd5b3d91506124ac565b6006820154612511906001600160a01b037f000000000000000000000000000000000000000000000000000000000000000081169116613633565b6122f0565b6005820154612551906001600160a01b037f000000000000000000000000000000000000000000000000000000000000000081169116613633565b6122e8565b9550935091506060843d60601161259f575b8161257560609383612c52565b8101031261259b576125868461345f565b916040602086015195015192949293386122df565b8480fd5b3d9150612568565b634e487b7160e01b86526041600452602486fd5b6006830154612614906001600160a01b037f00000000000000000000000000000000000000000000000000000000000000008116916125fc91839116613633565b600685015460443591906001600160a01b031661366e565b612206565b6005830154612672906001600160a01b037f000000000000000000000000000000000000000000000000000000000000000081169161265a91839116613633565b600585015460243591906001600160a01b031661366e565b6121fe565b9094506020813d6020116126a5575b8161269360209383612c52565b81010312611faf5751936121dc6121ca565b3d9150612686565b9492506020853d6020116126dc575b816126c960209383612c52565b81010312611faf57935191936020612192565b3d91506126bc565b905034610e09576020366003190112610e095760043563ffffffff60e01b81168091036120215760209250637965db0b60e01b8114908115612728575b5015158152f35b6301ffc9a760e01b14905038612721565b600435906001600160a01b03821682036104fb57565b604435906001600160a01b03821682036104fb57565b602435906001600160a01b03821682036104fb57565b9060048210156127885752565b634e487b7160e01b600052602160045260246000fd5b3360009081527f266cad2a07820380da249144ee0922486396c59c16dc4ab5f4c00611d746e9b760209081526040808320549092907fc4c453d647953c0fd35db5a34ee76e60fb4abc3a8fb891a25936b70b38f292539060ff16156128035750505050565b61280c33612d44565b84519161281883612c37565b6042835284830193606036863783511561297357603085538351906001918210156129735790607860218601536041915b818311612905575050506128c357610d029385936128ad9361289e604894610d529951988576020b1b1b2b9b9a1b7b73a3937b61d1030b1b1b7bab73a1604d1b8b978801528251928391603789019101612bb4565b01036028810185520183612c52565b5162461bcd60e51b815291829160048301612c73565b60648486519062461bcd60e51b825280600483015260248201527f537472696e67733a20686578206c656e67746820696e73756666696369656e746044820152fd5b909192600f8116601081101561295f576f181899199a1a9b1b9c1cb0b131b232b360811b901a6129358588612d33565b5360041c92801561294b57600019019190612849565b634e487b7160e01b82526011600452602482fd5b634e487b7160e01b83526032600452602483fd5b634e487b7160e01b81526032600452602490fd5b3360009081527fad3228b676f7d3cd4284a5443f17f1962b36e491b30a40b2405849e597ba5fb5602090815260408083205490929060ff16156129c957505050565b6129d233612d44565b835190826129df83612c37565b6042835284830193606036863783511561297357603085538351906001918210156129735790607860218601536041915b818311612a65575050506128c357610d029385936128ad9361289e604894610d529951988576020b1b1b2b9b9a1b7b73a3937b61d1030b1b1b7bab73a1604d1b8b978801528251928391603789019101612bb4565b909192600f8116601081101561295f576f181899199a1a9b1b9c1cb0b131b232b360811b901a612a958588612d33565b5360041c92801561294b57600019019190612a10565b6000818152602090808252604092838220338352835260ff848320541615612ad35750505050565b612adc33612d44565b845191612ae883612c37565b6042835284830193606036863783511561297357603085538351906001918210156129735790607860218601536041915b818311612b6e575050506128c357610d029385936128ad9361289e604894610d529951988576020b1b1b2b9b9a1b7b73a3937b61d1030b1b1b7bab73a1604d1b8b978801528251928391603789019101612bb4565b909192600f8116601081101561295f576f181899199a1a9b1b9c1cb0b131b232b360811b901a612b9e8588612d33565b5360041c92801561294b57600019019190612b19565b60005b838110612bc75750506000910152565b8181015183820152602001612bb7565b6001600160401b038111612bea57604052565b634e487b7160e01b600052604160045260246000fd5b61016081019081106001600160401b03821117612bea57604052565b60a081019081106001600160401b03821117612bea57604052565b608081019081106001600160401b03821117612bea57604052565b90601f801991011681019081106001600160401b03821117612bea57604052565b60409160208252612c938151809281602086015260208686019101612bb4565b601f01601f1916010190565b9060009180835282602052604083209160018060a01b03169182845260205260ff604084205416612ccf57505050565b80835282602052604083208284526020526040832060ff1981541690557ff6391f5c32d9c69d2a47ea670b442974b53935d1edc7fd64eb21e047a839171b339380a4565b81810292918115918404141715610ddd57565b91908201809211610ddd57565b908151811015610df3570160200190565b60405190606082018281106001600160401b03821117612bea57604052602a8252602082016040368237825115610df357603090538151600190811015610df357607860218401536029905b808211612de4575050612da05790565b606460405162461bcd60e51b815260206004820152602060248201527f537472696e67733a20686578206c656e67746820696e73756666696369656e746044820152fd5b9091600f81166010811015612e3d576f181899199a1a9b1b9c1cb0b131b232b360811b901a612e138486612d33565b5360041c918015612e28576000190190612d90565b60246000634e487b7160e01b81526011600452fd5b60246000634e487b7160e01b81526032600452fd5b6002805414612e615760028055565b60405162461bcd60e51b815260206004820152601f60248201527f5265656e7472616e637947756172643a207265656e7472616e742063616c6c006044820152606490fd5b60405163a9059cbb60e01b60208201526001600160a01b0390921660248301526044820192909252612eee91612ee982606481015b03601f198101845283612c52565b612efd565b565b519081151582036104fb57565b60018060a01b031690604051604081016001600160401b039082811082821117612bea576040526020938483527f5361666545524332303a206c6f772d6c6576656c2063616c6c206661696c6564858401526000808587829751910182855af1903d15613040573d92831161302c5790612f9793929160405192612f8a88601f19601f8401160185612c52565b83523d868885013e61304b565b9081519083821592831561300a575b505050905015612fb35750565b6084906040519062461bcd60e51b82526004820152602a60248201527f5361666545524332303a204552433230206f7065726174696f6e20646964206e6044820152691bdd081cdd58d8d9595960b21b6064820152fd5b8480929394500103126101e55750816130239101612ef0565b80388381612fa6565b634e487b7160e01b85526041600452602485fd5b90612f979392506060915b919290156130ad575081511561305f575090565b3b156130685790565b60405162461bcd60e51b815260206004820152601d60248201527f416464726573733a2063616c6c20746f206e6f6e2d636f6e74726163740000006044820152606490fd5b8251909150156130c05750805190602001fd5b60405162461bcd60e51b8152908190610d529060048301612c73565b156130e357565b60405162461bcd60e51b8152602060048201526008602482015267646561646c696e6560c01b6044820152606490fd5b1561311a57565b60405162461bcd60e51b815260206004820152600d60248201526c1a5b9d985b1a59081b195d995b609a1b6044820152606490fd5b6001600160401b038111612bea5760051b60200190565b519060ff821682036104fb57565b60209081818403126104fb578051906001600160401b0382116104fb57019180601f840112156104fb5782516131a98161314f565b936131b76040519586612c52565b818552838086019260051b8201019283116104fb578301905b8282106131de575050505090565b8380916131ea84613166565b8152019101906131d0565b8051821015610df35760209160051b010190565b81601f820112156104fb578051916132208361314f565b9261322e6040519485612c52565b808452602092838086019260051b8201019283116104fb578301905b828210613258575050505090565b8151815290830190830161324a565b519063ffffffff821682036104fb57565b60a0818303126104fb5780516001600160401b03908181116104fb57836132a0918401613209565b93602092838101518381116104fb57856132bb918301613209565b9460408201518481116104fb57816132d4918401613209565b9460608301518581116104fb5783019082601f830112156104fb578151916132fb8361314f565b926133096040519485612c52565b808452828085019160051b830101918583116104fb578301905b82821061334857505050509360808301519081116104fb576133459201613209565b90565b83809161335484613267565b815201910190613323565b1561336657565b60405162461bcd60e51b81526020600482015260096024820152683d32b93790383932b360b91b6044820152606490fd5b51906001600160a01b03821682036104fb57565b519061ffff821682036104fb57565b90816101209103126104fb576133cf81612ef0565b916133dc60208301613397565b916133e960408201613166565b916133f660608301613166565b9161340360808201612ef0565b9161341060a08301613267565b9161341d60c082016133ab565b9161334561010061343060e085016133ab565b93016133ab565b9060020b9081156134495760020b0790565b634e487b7160e01b600052601260045260246000fd5b51906001600160801b03821682036104fb57565b91908260809103126104fb5781519161348e6020820161345f565b916060604083015192015190565b91909161016081019260018060a01b0380825116835280602083015116602084015262ffffff6040830151166040840152606082015160020b6060840152608082015160020b608084015260a082015160a084015260c082015160c084015260e082015160e084015261010080830151908401526101209081830151169083015261014080910151910152565b1561353057565b60405162461bcd60e51b815260206004820152600d60248201526c6d696e74207a65726f206c697160981b6044820152606490fd5b91908203918211610ddd57565b6000198114610ddd5760010190565b906601000000000000600160b01b0382549160301b16906601000000000000600160b01b031916179055565b60ff600154166135b957565b60405162461bcd60e51b815260206004820152601060248201526f14185d5cd8589b194e881c185d5cd95960821b6044820152606490fd5b6040516323b872dd60e01b60208201526001600160a01b0392831660248201529290911660448301526064820192909252612eee91612ee98260848101612edb565b60405163095ea7b360e01b60208201526001600160a01b03909216602483015260006044808401919091528252612eee9190612ee982612c37565b9190918115801561371d575b156136b95760405163095ea7b360e01b60208201526001600160a01b0390931660248401526044830191909152612eee9190612ee98260648101612edb565b60405162461bcd60e51b815260206004820152603660248201527f5361666545524332303a20617070726f76652066726f6d206e6f6e2d7a65726f60448201527520746f206e6f6e2d7a65726f20616c6c6f77616e636560501b6064820152608490fd5b50604051636eb1769f60e11b81523060048201526001600160a01b0384811660248301526020908290604490829086165afa90811561379657600091613765575b501561367a565b906020823d821161378e575b8161377e60209383612c52565b810103126101e55750513861375e565b3d9150613771565b6040513d6000823e3d90fd5b62ffffff16606481146137ec576101f481146137e657610bb881146137e057612710146137db576040516309c4643160e01b8152600490fd5b60c890565b50603c90565b50600a90565b50600190565b91908260409103126104fb576020825192015190565b9060ff8091169116039060ff8211610ddd57565b1561382357565b60405162461bcd60e51b815260206004820152601760248201527f646563696d616c73206469666620746f6f206c617267650000000000000000006044820152606490fd5b604d8111610ddd57600a0a90565b90939492918115613b0d5784151580613b02575b15613acf57613898906137a2565b604080516311467d9d60e31b815260048101939093526024830195909552916001600160a01b039185816044817f000000000000000000000000000000000000000000000000000000000000000087165afa968715613ac4576000918298613a90575b50613957613969936139639361395d9360ff831660ff82161015600014613a6e5761394460ff6139316139519561394b94613808565b1661393f602482111561381c565b613868565b8092615465565b9a615465565b98615d92565b97615d92565b966154b5565b956154b5565b946401000276a3808210613a66575b73fffd8963efd1fc6a506488495d951d5263988d2690818311613a5d575b808810613a55575b50808711613a4d575b50826139c6836139bf6139d296956139cc951661552b565b981661552b565b96613b7b565b94613bc1565b91828360020b8560020b13613a44575b50620d89e7198460020b121580613a34575b156139fc5750565b5162461bcd60e51b81526020600482015260126024820152717469636b73206f7574206f662072616e676560701b6044820152606490fd5b50620d89e88360020b13156139f4565b939250386139e2565b9550826139a7565b96503861399e565b91508091613996565b905080613978565b613a8360ff613931613a8a9361395196613808565b8092615305565b9a615305565b61395d919850613963925061396993613ab8613957928a3d8c116104c5576104b28183612c52565b9a9350935093506138fb565b86513d6000823e3d90fd5b60405162461bcd60e51b815260206004820152600b60248201526a1c18dd081a5b9d985b1a5960aa1b6044820152606490fd5b50606485111561388a565b60405162461bcd60e51b81526020600482015260076024820152660705f7265663d360cc1b6044820152606490fd5b8115613449570790565b91909160008382019384129112908015821691151617610ddd57565b81810392916000138015828513169184121617610ddd57565b9060020b8015613bbd57613ba69160020b613b968282613b3c565b9160008312613bac575b50613b62565b60020b90565b613bb69192613b46565b9038613ba0565b5090565b9060020b8015613bbd578160020b90613bda8183613b3c565b9260008412613c05575b8315613bfe5750613ba692613bf891613b62565b90613b46565b9250505090565b9281613c1091613b46565b92613be4565b90918015613c7e5760207ff22acaaca393d16ec4a7adae1e62c7e14a9d01e52f9f140fc030e03f73638f649160018060a01b0380941693846000526005835260406000209516948560005282526040600020613c73828254612d26565b9055604051908152a3565b505050565b15613c8a57565b60405162461bcd60e51b81526020600482015260086024820152673737903a37b5b2b760c11b6044820152606490fd5b919091606060808201938051835260018060a01b036020820151166020840152816001600160801b0391826040820151166040860152015116910152565b51908160020b82036104fb57565b91909160808060a0830194805184526001600160801b03602082015116602085015260408101516040850152606081015160608501520151910152565b8060005260036020526040600020600681015460ff8160a01c16156104d757600382015491613d73831515613c83565b604051635dbe277d60e11b8152906000826004817f00000000000000000000000000000000000000000000000000000000000000006001600160a01b03165afa91821561379657600092614cdd575b5060ff60028201541691600483101561278857613ded8382613de860ff94518310613113565b6131f5565b51600183015460405163f0bc4bb960e01b8152600481018290529290911693916000816024817f00000000000000000000000000000000000000000000000000000000000000006001600160a01b03165afa90811561379657613e61918491600091614cbe575b50613de881518310613113565b5190613e6e82151561335f565b613e8f604051936382e77f2b60e01b8552826004860152602485019061277b565b6020836044817f00000000000000000000000000000000000000000000000000000000000000006001600160a01b03165afa92831561379657600093614c8a575b50604051632d485eed60e21b81526004810191909152610120816024817f00000000000000000000000000000000000000000000000000000000000000006001600160a01b03165afa90811561379657613f4592600091600093614c5b575b5060048601549662ffffff8860b01c1691613876565b95908060020b8560020b1480614c49575b614c015760405163133f757160e31b81526004810183905294610180866024817f00000000000000000000000000000000000000000000000000000000000000006001600160a01b03165afa801561379657600096600090600090600093614b37575b5060058801546001600160a01b03908116991689149182614b21575b5081614b0c575b5015614ad4576020602497604051988980926370a0823160e01b82523060048301525afa96871561379657600097614a9d575b506040516370a0823160e01b815230600482015297602090899060249082906001600160a01b03165afa97881561379657600098614a69575b506001600160801b03811615614a56575b6001600160801b0381166148d5575b5061407f6040600387015481519061062f82612c37565b038160007f00000000000000000000000000000000000000000000000000000000000000006001600160a01b03165af190816148b7575b5061411457505050506140c99350614cfa565b7fc82cbf81648196244b0521975eadcd41636b7ac6305a582aad1d6782819b7121606060405160208152600e60208201526d18dbdb1b1958dd17d9985a5b195960921b6040820152a2565b60058501546040516370a0823160e01b8152306004820152949890602090869060249082906001600160a01b03165afa93841561379657600094614882575b60068701546040516370a0823160e01b81523060048201529650602090879060249082906001600160a01b03165afa9586156137965760009661484e575b508a88861480614845575b6147f7576141b562ffffff60048a015460b01c166137a2565b6141c58660020b8560020b613b62565b9060020b1361471857508461469b575b8561461e575b60058701546006880154600489015460b01c62ffffff16916001600160a01b0391821691164261012c810110610ddd57614283926080926040519261421f84612c00565b8352602083015260408201528660020b60608201528460020b828201528760a08201528860c0820152600060e082015260006101008201523061012082015261012c420161014082015260405180938192634418b22b60e11b83526004830161349c565b038160007f00000000000000000000000000000000000000000000000000000000000000006001600160a01b03165af190816000916000936145fa575b506143a6575050505050506142de9550614366575b61432657614cfa565b7f3b7276ddd5cdfc48dc4ac6ddae1a1f5a9c21452aa1aec8585d2bcc46abfa0200606060405160208152600b60208201526a1b5a5b9d17d9985a5b195960aa1b6040820152a2565b6006810154614361906001600160a01b037f000000000000000000000000000000000000000000000000000000000000000081169116613633565b614cfa565b60058201546143a1906001600160a01b037f000000000000000000000000000000000000000000000000000000000000000081169116613633565b6142d5565b6143d193979698959a506001600160801b03929499509581986145ba575b61457a575b161515613529565b6001820154600283015460ff16989091907f00000000000000000000000000000000000000000000000000000000000000006001600160a01b03163b156104fb576001600160801b03878c966145146145669a6004600080516020615f108339815191529f998f60a09a61447c7fdcbd242274f551e98cfef89ae30d02c0d3244226fba50f248e18e5ff1338510c9d60405192630b553bdd60e01b845286840152602483019061277b565b8960448201526000816064818f60018086921b037f0000000000000000000000000000000000000000000000000000000000000000165af161456b575b506144cd8d6001808e1b038454168c614e4d565b5085600383015562ffffff1983830154169062ffffff16178282015561450e8d8383019081549060181b65ffffff000000169065ffffff0000001916179055565b01613581565b6040519485526020850152818a60301c1660408501521660608301526080820152a260408051600285810b825260189590951c850b602082015294840b9085015290910b606083015281906080820190565b0390a2565b61457490612bd7565b386144b9565b60068501546145b5906001600160a01b037f000000000000000000000000000000000000000000000000000000000000000081169116613633565b6143c9565b60058601546145f5906001600160a01b037f000000000000000000000000000000000000000000000000000000000000000081169116613633565b6143c4565b909250614615915060803d81116117835761176f8183612c52565b505091386142c0565b6006870154614659906001600160a01b037f000000000000000000000000000000000000000000000000000000000000000081169116613633565b60068701546146969087906001600160a01b037f00000000000000000000000000000000000000000000000000000000000000008116911661366e565b6141db565b60058701546146d6906001600160a01b037f000000000000000000000000000000000000000000000000000000000000000081169116613633565b60058701546147139086906001600160a01b037f00000000000000000000000000000000000000000000000000000000000000008116911661366e565b6141d5565b93985091965093600080516020615f10833981519152985094614566958461477e956147d3575b50806147af575b5060048101805465ffffffffffff191662ffffff8a161765ffffff000000601888901b161790555b546001600160a01b031690614e4d565b5060408051600285810b825260189590951c850b602082015294840b9085015290910b606083015281906080820190565b815460068301546147cd92916001600160a01b039182169116613c16565b38614746565b825460058401546147f192916001600160a01b039182169116613c16565b3861473f565b60048801805465ffffffffffff191662ffffff87161765ffffff000000601886901b16179055600080516020615f108339815191529a509398509196506145669590945061477e935061476e565b5089871461419c565b9095506020813d60201161487a575b8161486a60209383612c52565b810103126104fb57519438614191565b3d915061485d565b93506020853d6020116148af575b8161489d60209383612c52565b810103126104fb576024945193614153565b3d9150614890565b6148cf9060403d6040116104c5576104b28183612c52565b506140b6565b61012c42014211610ddd57614932604080516148f081612c1c565b8681526001600160801b03841660208201526000828201526000606082015261012c42016080820152815180938192630624e65f60e11b835260048301613d06565b038160007f00000000000000000000000000000000000000000000000000000000000000006001600160a01b03165af19081614a38575b506149d757505050505061497d9350614cfa565b7fa70e6e208456690b411694e1e0c35692dfe0b729826ac48b14374c5e6e2114d3606060405160208152601860208201527f64656372656173654c69717569646974795f6661696c656400000000000000006040820152a2565b6001600160801b03600487015460301c166001600160801b0382168111600014614a2c576001600160801b03808316820311610ddd576001600160801b03614a26921690035b60048701613581565b38614068565b5050614a266000614a1d565b614a509060403d6040116104c5576104b28183612c52565b50614969565b506001600160801b038160301c16614059565b9097506020813d602011614a95575b81614a8560209383612c52565b810103126104fb57519638614048565b3d9150614a78565b9796506020883d602011614acc575b81614ab960209383612c52565b810103126104fb5796519596602061400f565b3d9150614aac565b60405162461bcd60e51b815260206004820152601060248201526f0dedcc6d0c2d2dc40dad2e6dac2e8c6d60831b6044820152606490fd5b905062ffffff808460b01c1691161438613fdc565b6001600160a01b038b8116911614915038613fd5565b9850505050610180863d61018011614bf9575b81614b586101809383612c52565b810103126104fb5785516bffffffffffffffffffffffff8116036104fb57614b8260208701613397565b50614b8f60408701613397565b95614b9c60608201613397565b9660808201519062ffffff821682036104fb57614bbb60a08401613cf8565b50614bc860c08401613cf8565b50614bf0610160614bdb60e0860161345f565b94614be9610140820161345f565b500161345f565b50979038613fb9565b3d9150614b4a565b60408051600287810b825260189790971c870b602082015291860b908201529590930b606086015250600080516020615f108339815191529392508291505060808101614566565b508660020b8560181c60020b14613f56565b909250614c7991506101203d61012011611a09576119ef8183612c52565b505050505092509050909138613f2f565b9092506020813d602011614cb6575b81614ca660209383612c52565b810103126104fb57519138613ed0565b3d9150614c99565b614cd391503d806000833e611a2f8183612c52565b5050505038613e54565b614cf39192503d806000833e611a608183612c52565b9038613dc2565b60058101546040516370a0823160e01b8082523060048301529294936001600160a01b03928316916020918282602481875afa91821561379657600092614e1e575b50600688019583868854169160246040518094819382523060048301525afa93841561379657600094614ded575b5050600091818111600014614de557614d839250613565565b945b60009181811115614ddd57614d9a9250613565565b935b80614dc9575b505082614db0575b50505050565b80614dc094541691541690613c16565b38808080614daa565b614dd69183875416613c16565b3880614da2565b505093614d9c565b505094614d85565b8181959293953d8311614e17575b614e058183612c52565b810103126101e5575051913880614d6a565b503d614dfb565b90918382813d8311614e46575b614e358183612c52565b810103126101e55750519038614d3c565b503d614e2b565b6001600160a01b037f000000000000000000000000000000000000000000000000000000000000000081169392843b156104fb57604091825195630852cd8d60e31b8752600096856004820152878160248183865af1908161504d575b50614ffd57803b15611f2c578351632142170760e11b81523060048201526001600160a01b03841660248201526044810186905290879081908390606490829084905af19182614fe9575b5050614f9557848652600660209081528387208590558487526007815283872080546001600160a01b0319169284169290921790915582518481526001600160a01b03909216828201527ff052de2f1ecc345d0bf7c84bad27dfa41465cdfbf5fd97dd8322817d7d63b208939092909185907f63ef1de299928b13dac1329739e03a7f58f70ce67c9cac87c8e4c06a165106a890604090a251908152a290565b50507ffc67e47a988cb5dfdd8c9ea97f0c55a81bb6b44bfc5370e1f043d245acb3983b92935090600b82608093519283528060208401528201526a1d1c985b9cd9995c9c995960aa1b6060820152a2600190565b614ff290612bd7565b611f2c578638614ef5565b5050507ffc67e47a988cb5dfdd8c9ea97f0c55a81bb6b44bfc5370e1f043d245acb3983b929350906006826080935192835280602084015282015265189d5c9b995960d21b6060820152a2600190565b61505990989198612bd7565b9638614eaa565b6000818152602091600683526040918281205480156152b95780825260078552838220546001600160a01b039081169290338414801561527e575b15615249577f000000000000000000000000000000000000000000000000000000000000000016803b15610e09578551630852cd8d60e31b815260048101849052828160248183865af19081615236575b506151de57803b15610e09578551632142170760e11b81523060048201526001600160a01b03851660248201526044810184905290829081908390606490829084905af191826151ca575b505061517357845162461bcd60e51b815260048101879052600f60248201526e149958dbdd995c9e4819985a5b1959608a1b6044820152606490fd5b8381526006865284812081905581815260079095529383902080546001600160a01b031916905591519283526001600160a01b03909116602083015290600080516020615f30833981519152908060408101614566565b6151d390612bd7565b610e09578138615137565b508381526006865284812081905581815260079095529383902080546001600160a01b031916905591519283526001600160a01b03909116602083015290600080516020615f30833981519152908060408101614566565b61524290939193612bd7565b91386150ec565b855162461bcd60e51b815260048101889052600e60248201526d139bdd08185d5d1a1bdc9a5e995960921b6044820152606490fd5b507fc4c453d647953c0fd35db5a34ee76e60fb4abc3a8fb891a25936b70b38f292538252818752858220338352875260ff868320541661509b565b8351633d76645160e11b8152600490fd5b156152d157565b60405162461bcd60e51b815260206004820152600c60248201526b7a65726f206164647265737360a01b6044820152606490fd5b909190600019600182099281808510940393808503941461545857838111156104fb57806001830990801960018101809111610ddd5781168091049161535a600096600184808a030401908684119003612d13565b9280600302966003880482036154305760028098186153798184612d13565b890390898211615444579061538d91612d13565b6153978184612d13565b89039089821161544457906153ab91612d13565b6153b58184612d13565b89039089821161544457906153c991612d13565b6153d38184612d13565b89039089821161544457906153e791612d13565b6153f18184612d13565b8903908982116154445761540f9161540891612d13565b8093612d13565b88039788116154305750613345959661542791612d13565b93030417612d13565b634e487b7160e01b81526011600452602490fd5b634e487b7160e01b83526011600452602483fd5b80929350156104fb570490565b9060001981830991818102918280851094039380850394146154ae5783600111156104fb5760019109600181830393838311141715610ddd57146001828004141715610ddd5790565b5050905090565b600160601b9190600019838209928160601b928380861095039480860395146155195750670de0b6b3a764000091848311156104fb5709118082038060ee1b04600160ee1b1491141715610ddd57634e487b7160e01b600052601160045260246000fd5b93505050670de0b6b3a7640000900490565b6001600160a01b0390808216906401000276a382101580615d6b575b15615d4257640100000000600160c01b039060201b169182916001600160801b03841160071b9184831c936001600160401b03851160061b94851c9563ffffffff9182881160051b97881c9560049861ffff88118a1b97881c9760ff9889811160031b90811c91600f831160021b92831c9360019c8d60038711811b96871c1196171717171717179060809283831015600014615d2e5750607e198201828111615d19571c5b607f1982019182138816615cef579081879202607f928392828493841c81841c1c800280851c81851c1c800280861c81861c1c800280871c81871c1c80029081881c82881c1c80029283891c84891c1c800294858a1c868a1c1c800296878b1c888b1c1c800298898c1c8a8c1c1c80029a8b8d1c8c821c1c8002809d1c8d821c1c8002809e81901c90821c1c80029e8f80911c911c1c800260cd1c6604000000000000169d60cc1c6608000000000000169c60cb1c6610000000000000169b60ca1c6620000000000000169a60c91c6640000000000000169960c81c6680000000000000169860c71c670100000000000000169760c61c670200000000000000169660c51c670400000000000000169560c41c670800000000000000169460c31c671000000000000000169360c21c672000000000000000169260c11c674000000000000000169160c01c678000000000000000169060401b171717171717171717171717171794693627a301d71055774c8595868102968188051490151715615d04576f028f6481ab7f045a5af012a19d003aa91986018681138816615cef57821d60020b966fdb2df09e81959a81455e260799a0632f8088019081126000809912908015821691151617615cdc57831d60020b98888a036157d7575050505050505050905090565b878a1215615cd557600160ff1b8a14615cc257898803935b620d89e88511615c9b5784831615615c89576001600160881b036ffffcb933bd6fad37aa2d162d1a5940015b169460028116615c5e575b828116615c33575b60088116615c08575b60108116615bdd575b60208116615bb2575b60408116615b87575b818116615b5c575b6101008116615b31575b6102008116615b06575b6104008116615adb575b6108008116615ab0575b6110008116615a85575b6120008116615a5a575b6140008116615a2f575b6180008116615a04575b6201000081166159d9575b6202000081166159af575b620400008116615973575b6208000016615937575b50878a1361590c575b506158f69383166159075750855b169060201c612d26565b16119050615902575090565b905090565b6158ec565b839192931561592457506000190491906158f66158de565b634e487b7160e01b885260129052602487fd5b6b048a170391f7dc42444e8fa294919491828102928184041490151715615960571c92386158d5565b634e487b7160e01b895260118552602489fd5b946d2216e584f5fa1ea926041bedfe989081810291818304149015171561599c57811c946158cb565b634e487b7160e01b8a526011835260248afd5b946e5d6af8dedb81196699c329225ee6049081810291818304149015171561599c57811c946158c0565b946f09aa508b5b7a84e1c677de54f3e99bc99081810291818304149015171561599c57811c946158b5565b946f31be135f97d08fd981231505542fcfa69081810291818304149015171561599c57811c946158aa565b946f70d869a156d2a1b890bb3df62baf32f79081810291818304149015171561599c57811c946158a0565b946fa9f746462d870fdf8a65dc1f90e061e59081810291818304149015171561599c57811c94615896565b946fd097f3bdfd2022b8845ad8f792aa58259081810291818304149015171561599c57811c9461588c565b946fe7159475a2c29b7443b29c7fa6e889d99081810291818304149015171561599c57811c94615882565b946ff3392b0822b70005940c7a398e4b70f39081810291818304149015171561599c57811c94615878565b946ff987a7253ac413176f2b074cf7815e549081810291818304149015171561599c57811c9461586e565b946ffcbe86c7900a88aedcffc83b479aa3a49081810291818304149015171561599c57811c94615864565b946ffe5dee046a99a2a811c461f1969c30539081810291818304149015171561599c57811c9461585a565b946fff2ea16466c96a3843ec78b326b528619081810291818304149015171561599c57811c94615852565b946fff973b41fa98c081472e6896dfb254c09081810291818304149015171561599c57811c94615849565b946fffcb9843d60f6159c9db58835c9266449081810291818304149015171561599c57811c94615840565b946fffe5caca7e10e4e61c3624eaa0941cd09081810291818304149015171561599c57811c94615837565b946ffff2e50f5f656932ef12357cf3c7fdcc9081810291818304149015171561599c57811c9461582e565b946ffff97272373d413259a46990580e213a9081810291818304149015171561599c57811c94615826565b6001600160881b03600160801b61581b565b5060649160206040519262461bcd60e51b84528301526024820152601560fa1b6044820152fd5b634e487b7160e01b885260119052602487fd5b89936157ef565b634e487b7160e01b885260118a52602488fd5b601189634e487b7160e01b6000525260246000fd5b601188634e487b7160e01b6000525260246000fd5b60118a634e487b7160e01b6000525260246000fd5b905081607f03607f8111615d19571b6155ed565b60405162461bcd60e51b81526020600482015260016024820152602960f91b6044820152606490fd5b5073fffd8963efd1fc6a506488495d951d5263988d268210615547565b8115613449570490565b7812725dd1d243aba0e75fe645cc4873f9e65afe688c928e1f218111615dc557670de0b6b3a76400006133459102615ddd565b60249060405190636155b67d60e01b82526004820152fd5b8015615f0957806001600160801b821015615ef8575b600882600160401b615ea5941015615eeb575b640100000000811015615ede575b62010000811015615ed2575b610100811015615ec6575b6010811015615eb9575b1015615eb1575b615e468184615d88565b0160011c615e548184615d88565b0160011c615e628184615d88565b0160011c615e708184615d88565b0160011c615e7e8184615d88565b0160011c615e8c8184615d88565b0160011c615e9a8184615d88565b0160011c8092615d88565b90818110615902575090565b60011b615e3c565b60041c9160021b91615e35565b811c9160041b91615e2b565b60101c91811b91615e20565b60201c9160101b91615e14565b60401c9160201b91615e06565b5050608081901c600160401b615df3565b5060009056fe2e993fcf3349e4bf5d7ee598099a3f764247b86feb6f7cf6046909dbb15dfea948e95ba933bfb7d4e38fbad42e80e0a9715b93db5362bd2af7761ff08d4e7e78a26469706673582212202acf24f527400ed2c50d5495730f4cb2e14ff16411b24c771cdc3c2e67e9c47464736f6c634300081400332f8788117e7eff1d82e926ec794901d17c78024a50270940304540a733656f0d",
  "linkReferences": {},
  "deployedLinkReferences": {}
}